{
  "address": "0x58d882aee665C52B4761dFcB49D44DAeA15E584d",
  "abi": [
    {
      "inputs": [
        {
          "internalType": "contract IUniswapV3Factory",
          "name": "uniFactory_",
          "type": "address"
        }
      ],
      "stateMutability": "nonpayable",
      "type": "constructor"
    },
    {
      "anonymous": false,
      "inputs": [
        {
          "indexed": false,
          "internalType": "address[]",
          "name": "operators",
          "type": "address[]"
        }
      ],
      "name": "AddOperators",
      "type": "event"
    },
    {
      "anonymous": false,
      "inputs": [
        {
          "indexed": false,
          "internalType": "address",
          "name": "vault",
          "type": "address"
        },
        {
          "indexed": false,
          "internalType": "address",
          "name": "oracle",
          "type": "address"
        },
        {
          "indexed": false,
          "internalType": "uint24",
          "name": "maxDeviation",
          "type": "uint24"
        },
        {
          "indexed": false,
          "internalType": "uint24",
          "name": "maxSlippage",
          "type": "uint24"
        },
        {
          "indexed": false,
          "internalType": "uint16",
          "name": "managerFeeBPS",
          "type": "uint16"
        }
      ],
      "name": "InitManagement",
      "type": "event"
    },
    {
      "anonymous": false,
      "inputs": [
        {
          "indexed": false,
          "internalType": "uint8",
          "name": "version",
          "type": "uint8"
        }
      ],
      "name": "Initialized",
      "type": "event"
    },
    {
      "anonymous": false,
      "inputs": [
        {
          "indexed": true,
          "internalType": "address",
          "name": "previousOwner",
          "type": "address"
        },
        {
          "indexed": true,
          "internalType": "address",
          "name": "newOwner",
          "type": "address"
        }
      ],
      "name": "OwnershipTransferred",
      "type": "event"
    },
    {
      "anonymous": false,
      "inputs": [
        {
          "indexed": false,
          "internalType": "address",
          "name": "vault",
          "type": "address"
        },
        {
          "indexed": false,
          "internalType": "address",
          "name": "caller",
          "type": "address"
        }
      ],
      "name": "RebalanceVault",
      "type": "event"
    },
    {
      "anonymous": false,
      "inputs": [
        {
          "indexed": false,
          "internalType": "address[]",
          "name": "operators",
          "type": "address[]"
        }
      ],
      "name": "RemoveOperators",
      "type": "event"
    },
    {
      "anonymous": false,
      "inputs": [
        {
          "indexed": false,
          "internalType": "address[]",
          "name": "vaults",
          "type": "address[]"
        },
        {
          "indexed": false,
          "internalType": "uint16",
          "name": "managerFeeBPS",
          "type": "uint16"
        }
      ],
      "name": "SetManagerFeeBPS",
      "type": "event"
    },
    {
      "anonymous": false,
      "inputs": [
        {
          "indexed": false,
          "internalType": "address",
          "name": "vault",
          "type": "address"
        },
        {
          "indexed": false,
          "internalType": "uint16",
          "name": "managerFeeBPS",
          "type": "uint16"
        }
      ],
      "name": "SetManagerFeeBPS",
      "type": "event"
    },
    {
      "inputs": [
        {
          "internalType": "address[]",
          "name": "operators_",
          "type": "address[]"
        }
      ],
      "name": "addOperators",
      "outputs": [],
      "stateMutability": "nonpayable",
      "type": "function"
    },
    {
      "inputs": [],
      "name": "getOperators",
      "outputs": [
        {
          "internalType": "address[]",
          "name": "",
          "type": "address[]"
        }
      ],
      "stateMutability": "view",
      "type": "function"
    },
    {
      "inputs": [
        {
          "components": [
            {
              "internalType": "address",
              "name": "vault",
              "type": "address"
            },
            {
              "internalType": "contract IOracleWrapper",
              "name": "oracle",
              "type": "address"
            },
            {
              "internalType": "uint24",
              "name": "maxDeviation",
              "type": "uint24"
            },
            {
              "internalType": "uint24",
              "name": "maxSlippage",
              "type": "uint24"
            },
            {
              "internalType": "uint16",
              "name": "managerFeeBPS",
              "type": "uint16"
            }
          ],
          "internalType": "struct SimpleManager.SetupParams",
          "name": "params",
          "type": "tuple"
        }
      ],
      "name": "initManagement",
      "outputs": [],
      "stateMutability": "nonpayable",
      "type": "function"
    },
    {
      "inputs": [
        {
          "internalType": "address",
          "name": "owner_",
          "type": "address"
        }
      ],
      "name": "initialize",
      "outputs": [],
      "stateMutability": "nonpayable",
      "type": "function"
    },
    {
      "inputs": [
        {
          "internalType": "address",
          "name": "operator_",
          "type": "address"
        }
      ],
      "name": "isOperator",
      "outputs": [
        {
          "internalType": "bool",
          "name": "",
          "type": "bool"
        }
      ],
      "stateMutability": "view",
      "type": "function"
    },
    {
      "inputs": [],
      "name": "owner",
      "outputs": [
        {
          "internalType": "address",
          "name": "",
          "type": "address"
        }
      ],
      "stateMutability": "view",
      "type": "function"
    },
    {
      "inputs": [
        {
          "internalType": "address",
          "name": "vault_",
          "type": "address"
        },
        {
          "components": [
            {
              "components": [
                {
                  "internalType": "uint128",
                  "name": "liquidity",
                  "type": "uint128"
                },
                {
                  "components": [
                    {
                      "internalType": "int24",
                      "name": "lowerTick",
                      "type": "int24"
                    },
                    {
                      "internalType": "int24",
                      "name": "upperTick",
                      "type": "int24"
                    },
                    {
                      "internalType": "uint24",
                      "name": "feeTier",
                      "type": "uint24"
                    }
                  ],
                  "internalType": "struct Range",
                  "name": "range",
                  "type": "tuple"
                }
              ],
              "internalType": "struct PositionLiquidity[]",
              "name": "burns",
              "type": "tuple[]"
            },
            {
              "components": [
                {
                  "internalType": "uint128",
                  "name": "liquidity",
                  "type": "uint128"
                },
                {
                  "components": [
                    {
                      "internalType": "int24",
                      "name": "lowerTick",
                      "type": "int24"
                    },
                    {
                      "internalType": "int24",
                      "name": "upperTick",
                      "type": "int24"
                    },
                    {
                      "internalType": "uint24",
                      "name": "feeTier",
                      "type": "uint24"
                    }
                  ],
                  "internalType": "struct Range",
                  "name": "range",
                  "type": "tuple"
                }
              ],
              "internalType": "struct PositionLiquidity[]",
              "name": "mints",
              "type": "tuple[]"
            },
            {
              "components": [
                {
                  "internalType": "bytes",
                  "name": "payload",
                  "type": "bytes"
                },
                {
                  "internalType": "address",
                  "name": "router",
                  "type": "address"
                },
                {
                  "internalType": "uint256",
                  "name": "amountIn",
                  "type": "uint256"
                },
                {
                  "internalType": "uint256",
                  "name": "expectedMinReturn",
                  "type": "uint256"
                },
                {
                  "internalType": "bool",
                  "name": "zeroForOne",
                  "type": "bool"
                }
              ],
              "internalType": "struct SwapPayload",
              "name": "swap",
              "type": "tuple"
            },
            {
              "internalType": "uint256",
              "name": "minBurn0",
              "type": "uint256"
            },
            {
              "internalType": "uint256",
              "name": "minBurn1",
              "type": "uint256"
            },
            {
              "internalType": "uint256",
              "name": "minDeposit0",
              "type": "uint256"
            },
            {
              "internalType": "uint256",
              "name": "minDeposit1",
              "type": "uint256"
            }
          ],
          "internalType": "struct Rebalance",
          "name": "rebalanceParams_",
          "type": "tuple"
        }
      ],
      "name": "rebalance",
      "outputs": [],
      "stateMutability": "nonpayable",
      "type": "function"
    },
    {
      "inputs": [
        {
          "internalType": "address[]",
          "name": "operators_",
          "type": "address[]"
        }
      ],
      "name": "removeOperators",
      "outputs": [],
      "stateMutability": "nonpayable",
      "type": "function"
    },
    {
      "inputs": [],
      "name": "renounceOwnership",
      "outputs": [],
      "stateMutability": "nonpayable",
      "type": "function"
    },
    {
      "inputs": [
        {
          "internalType": "address[]",
          "name": "vaults_",
          "type": "address[]"
        },
        {
          "internalType": "uint16",
          "name": "managerFeeBPS_",
          "type": "uint16"
        }
      ],
      "name": "setManagerFee",
      "outputs": [],
      "stateMutability": "nonpayable",
      "type": "function"
    },
    {
      "inputs": [
        {
          "internalType": "address",
          "name": "newOwner",
          "type": "address"
        }
      ],
      "name": "transferOwnership",
      "outputs": [],
      "stateMutability": "nonpayable",
      "type": "function"
    },
    {
      "inputs": [],
      "name": "uniFactory",
      "outputs": [
        {
          "internalType": "contract IUniswapV3Factory",
          "name": "",
          "type": "address"
        }
      ],
      "stateMutability": "view",
      "type": "function"
    },
    {
      "inputs": [
        {
          "internalType": "address",
          "name": "",
          "type": "address"
        }
      ],
      "name": "vaults",
      "outputs": [
        {
          "internalType": "contract IOracleWrapper",
          "name": "oracle",
          "type": "address"
        },
        {
          "internalType": "uint24",
          "name": "maxDeviation",
          "type": "uint24"
        },
        {
          "internalType": "uint24",
          "name": "maxSlippage",
          "type": "uint24"
        },
        {
          "internalType": "uint16",
          "name": "managerFeeBPS",
          "type": "uint16"
        }
      ],
      "stateMutability": "view",
      "type": "function"
    },
    {
      "inputs": [
        {
          "internalType": "contract IArrakisV2[]",
          "name": "vaults_",
          "type": "address[]"
        },
        {
          "internalType": "contract IERC20[]",
          "name": "tokens_",
          "type": "address[]"
        },
        {
          "internalType": "address",
          "name": "target",
          "type": "address"
        }
      ],
      "name": "withdrawAndCollectFees",
      "outputs": [],
      "stateMutability": "nonpayable",
      "type": "function"
    }
  ],
  "transactionHash": "0xd12dc3d59d8daf7e7755af148ed2b9a0f145d88dd18ba122eeac8438d207a7f3",
  "args": [
    "0x1F98431c8aD98523631AE4a59f267346ea31F984"
  ],
  "numDeployments": 1,
  "solcInputHash": "e04d6a71086894d8e69761d5a6f279f7",
  "bytecode": "0x60a06040523480156200001157600080fd5b5060405162003c4c38038062003c4c833981016040819052620000349162000046565b6001600160a01b031660805262000078565b6000602082840312156200005957600080fd5b81516001600160a01b03811681146200007157600080fd5b9392505050565b608051613bb16200009b6000396000818161016501526120760152613bb16000f3fe608060405234801561001057600080fd5b50600436106100ea5760003560e01c80639eef12911161008c578063c4d66de811610066578063c4d66de8146102cd578063d365a377146102e0578063e04e20ff146102f3578063f2fde38b1461030657600080fd5b80639eef1291146101ca578063a07aea1c146101dd578063a622ee7c146101f057600080fd5b8063715018a6116100c8578063715018a614610145578063725880e91461014d57806376771d4b146101605780638da5cb5b146101ac57600080fd5b80630ce7b4a9146100ef57806327a099d8146101045780636d70f7ae14610122575b600080fd5b6101026100fd366004612bb0565b610319565b005b61010c610a26565b6040516101199190612c07565b60405180910390f35b610135610130366004612c61565b610a37565b6040519015158152602001610119565b610102610ac7565b61010261015b366004612cda565b610adb565b6101877f000000000000000000000000000000000000000000000000000000000000000081565b60405173ffffffffffffffffffffffffffffffffffffffff9091168152602001610119565b60335473ffffffffffffffffffffffffffffffffffffffff16610187565b6101026101d8366004612d31565b610e2d565b6101026101eb366004612d49565b61160b565b6102896101fe366004612c61565b60656020526000908152604090205473ffffffffffffffffffffffffffffffffffffffff81169062ffffff7401000000000000000000000000000000000000000082048116917701000000000000000000000000000000000000000000000081049091169061ffff7a0100000000000000000000000000000000000000000000000000009091041684565b6040805173ffffffffffffffffffffffffffffffffffffffff95909516855262ffffff9384166020860152919092169083015261ffff166060820152608001610119565b6101026102db366004612c61565b6117b3565b6101026102ee366004612ebf565b611943565b610102610301366004612f53565b611a95565b610102610314366004612c61565b611e69565b610324606633611f20565b61038f576040517f08c379a000000000000000000000000000000000000000000000000000000000815260206004820152600260248201527f4e4f00000000000000000000000000000000000000000000000000000000000060448201526064015b60405180910390fd5b73ffffffffffffffffffffffffffffffffffffffff828116600090815260656020908152604080832081516080810183529054948516815274010000000000000000000000000000000000000000850462ffffff9081168285015277010000000000000000000000000000000000000000000000860416918101919091527a01000000000000000000000000000000000000000000000000000090930461ffff16606080850191909152829182918291829081908190610451908b018b612fd7565b9050118061046f5750600061046960408b018b61303f565b60400135115b15610639578973ffffffffffffffffffffffffffffffffffffffff16630dfe16816040518163ffffffff1660e01b8152600401602060405180830381865afa1580156104bf573d6000803e3d6000fd5b505050506040513d601f19601f820116820180604052508101906104e3919061307d565b96508973ffffffffffffffffffffffffffffffffffffffff1663d21220a76040518163ffffffff1660e01b8152600401602060405180830381865afa158015610530573d6000803e3d6000fd5b505050506040513d601f19601f82011682018060405250810190610554919061307d565b95508673ffffffffffffffffffffffffffffffffffffffff1663313ce5676040518163ffffffff1660e01b8152600401602060405180830381865afa1580156105a1573d6000803e3d6000fd5b505050506040513d601f19601f820116820180604052508101906105c591906130ab565b94508573ffffffffffffffffffffffffffffffffffffffff1663313ce5676040518163ffffffff1660e01b8152600401602060405180830381865afa158015610612573d6000803e3d6000fd5b505050506040513d601f19601f8201168201806040525081019061063691906130ab565b93505b600061064860208b018b612fd7565b905011156107195761065d60208a018a612fd7565b905067ffffffffffffffff81111561067757610677612d8b565b6040519080825280602002602001820160405280156106a0578160200160208202803683370190505b509250876000015173ffffffffffffffffffffffffffffffffffffffff1663e84b8fe56040518163ffffffff1660e01b8152600401602060405180830381865afa1580156106f2573d6000803e3d6000fd5b505050506040513d601f19601f8201168201806040525081019061071691906130c6565b91505b60005b61072960208b018b612fd7565b90508110156109135761077061074260208c018c612fd7565b83818110610752576107526130df565b610769926080918202019081019150606001613121565b8584611f52565b6109015760006107b4898961078860208f018f612fd7565b86818110610798576107986130df565b6107af926080918202019081019150606001613121565b61201b565b905060008173ffffffffffffffffffffffffffffffffffffffff16633850c7bd6040518163ffffffff1660e01b815260040160e060405180830381865afa158015610803573d6000803e3d6000fd5b505050506040513d601f19601f820116820180604052508101906108279190613159565b505073ffffffffffffffffffffffffffffffffffffffff909416945060009350610884925061085a915084905080613220565b6108658b600a61337d565b7801000000000000000000000000000000000000000000000000612162565b905061089681878e602001518b61222e565b6108a360208e018e612fd7565b858181106108b3576108b36130df565b6108ca926080918202019081019150606001613121565b8786815181106108dc576108dc6130df565b62ffffff90921660209283029190910190910152846108fa8161338c565b9550505050505b8061090b8161338c565b91505061071c565b50600061092360408b018b61303f565b604001351115610947576109476109398a6135e1565b895160408b015188886122f2565b6040517f8712e49700000000000000000000000000000000000000000000000000000000815273ffffffffffffffffffffffffffffffffffffffff8b1690638712e49790610999908c906004016138b0565b600060405180830381600087803b1580156109b357600080fd5b505af11580156109c7573d6000803e3d6000fd5b50506040805173ffffffffffffffffffffffffffffffffffffffff8e1681523360208201527f1a028edaa9ea43801b14b0322aa1eb40003d8dea5d7da150c3c011ac2f16b442935001905060405180910390a150505050505050505050565b6060610a3260666124ea565b905090565b600073ffffffffffffffffffffffffffffffffffffffff8216610ab6576040517f08c379a000000000000000000000000000000000000000000000000000000000815260206004820152600260248201527f415a0000000000000000000000000000000000000000000000000000000000006044820152606401610386565b610ac1606683611f20565b92915050565b610acf6124f7565b610ad96000612578565b565b610ae36124f7565b60005b82811015610dec576000606581868685818110610b0557610b056130df565b9050602002016020810190610b1a9190612c61565b73ffffffffffffffffffffffffffffffffffffffff90811682526020820192909252604001600020541603610bab576040517f08c379a000000000000000000000000000000000000000000000000000000000815260206004820152600260248201527f4e4d0000000000000000000000000000000000000000000000000000000000006044820152606401610386565b8161ffff1660656000868685818110610bc657610bc66130df565b9050602002016020810190610bdb9190612c61565b73ffffffffffffffffffffffffffffffffffffffff1681526020810191909152604001600020547a010000000000000000000000000000000000000000000000000000900461ffff1603610c8b576040517f08c379a000000000000000000000000000000000000000000000000000000000815260206004820152600260248201527f4e550000000000000000000000000000000000000000000000000000000000006044820152606401610386565b8160656000868685818110610ca257610ca26130df565b9050602002016020810190610cb79190612c61565b73ffffffffffffffffffffffffffffffffffffffff1681526020810191909152604001600020805461ffff929092167a010000000000000000000000000000000000000000000000000000027fffffffff0000ffffffffffffffffffffffffffffffffffffffffffffffffffff909216919091179055838382818110610d3f57610d3f6130df565b9050602002016020810190610d549190612c61565b6040517f4794c84a00000000000000000000000000000000000000000000000000000000815261ffff8416600482015273ffffffffffffffffffffffffffffffffffffffff9190911690634794c84a90602401600060405180830381600087803b158015610dc157600080fd5b505af1158015610dd5573d6000803e3d6000fd5b505050508080610de49061338c565b915050610ae6565b507fbecde287111150eedcab9153c0e824c95118f3814e270eb7c1c0089e67e63fe7838383604051610e20939291906139eb565b60405180910390a1505050565b610e356124f7565b6000610e476060830160408401613121565b62ffffff1611610eb3576040517f08c379a000000000000000000000000000000000000000000000000000000000815260206004820152600260248201527f444e0000000000000000000000000000000000000000000000000000000000006044820152606401610386565b610ec06020820182612c61565b73ffffffffffffffffffffffffffffffffffffffff1663481c6a756040518163ffffffff1660e01b8152600401602060405180830381865afa158015610f0a573d6000803e3d6000fd5b505050506040513d601f19601f82011682018060405250810190610f2e919061307d565b73ffffffffffffffffffffffffffffffffffffffff163073ffffffffffffffffffffffffffffffffffffffff1614610fc2576040517f08c379a000000000000000000000000000000000000000000000000000000000815260206004820152600260248201527f4e4d0000000000000000000000000000000000000000000000000000000000006044820152606401610386565b6000610fd46040830160208401612c61565b73ffffffffffffffffffffffffffffffffffffffff1603611051576040517f08c379a000000000000000000000000000000000000000000000000000000000815260206004820152600360248201527f4f5a4100000000000000000000000000000000000000000000000000000000006044820152606401610386565b60006065816110636020850185612c61565b73ffffffffffffffffffffffffffffffffffffffff908116825260208201929092526040016000205416146110f4576040517f08c379a000000000000000000000000000000000000000000000000000000000815260206004820152600260248201527f41560000000000000000000000000000000000000000000000000000000000006044820152606401610386565b600061110660a0830160808401613a13565b61ffff1611611171576040517f08c379a000000000000000000000000000000000000000000000000000000000815260206004820152600360248201527f4d464200000000000000000000000000000000000000000000000000000000006044820152606401610386565b6103e86111846080830160608401613121565b62ffffff1611156111f1576040517f08c379a000000000000000000000000000000000000000000000000000000000815260206004820152600260248201527f4d530000000000000000000000000000000000000000000000000000000000006044820152606401610386565b6111fe6020820182612c61565b73ffffffffffffffffffffffffffffffffffffffff1663ccdf7a026040518163ffffffff1660e01b8152600401602060405180830381865afa158015611248573d6000803e3d6000fd5b505050506040513d601f19601f8201168201806040525081019061126c9190613a30565b61ffff1661128060a0830160808401613a13565b61ffff16146113a0576112966020820182612c61565b73ffffffffffffffffffffffffffffffffffffffff16634794c84a6112c160a0840160808501613a13565b6040517fffffffff0000000000000000000000000000000000000000000000000000000060e084901b16815261ffff9091166004820152602401600060405180830381600087803b15801561131557600080fd5b505af1158015611329573d6000803e3d6000fd5b507fec4ced14b5b836ebbc58dff0208415b7684f92a899d738abe88a923c0df9f3c4925061135d9150506020830183612c61565b61136d60a0840160808501613a13565b6040805173ffffffffffffffffffffffffffffffffffffffff909316835261ffff90911660208301520160405180910390a15b60405180608001604052808260200160208101906113be9190612c61565b73ffffffffffffffffffffffffffffffffffffffff1681526020016113e96060840160408501613121565b62ffffff1681526020016114036080840160608501613121565b62ffffff16815260200161141d60a0840160808501613a13565b61ffff169052606560006114346020850185612c61565b73ffffffffffffffffffffffffffffffffffffffff9081168252602080830193909352604091820160002084518154868601519487015160609097015161ffff167a010000000000000000000000000000000000000000000000000000027fffffffff0000ffffffffffffffffffffffffffffffffffffffffffffffffffff62ffffff9889167701000000000000000000000000000000000000000000000002167fffffffff0000000000ffffffffffffffffffffffffffffffffffffffffffffff9890961674010000000000000000000000000000000000000000027fffffffffffffffffff00000000000000000000000000000000000000000000009092169290941691909117179490941691909117179091557f4eaf84058eaf19e1befbd5d8d92e51fb760e421f314fddf252dca4eef527fc399061157890830183612c61565b6115886040840160208501612c61565b6115986060850160408601613121565b6115a86080860160608701613121565b6115b860a0870160808801613a13565b6040805173ffffffffffffffffffffffffffffffffffffffff968716815295909416602086015262ffffff9283169385019390935216606083015261ffff16608082015260a0015b60405180910390a150565b6116136124f7565b8061167a576040517f08c379a000000000000000000000000000000000000000000000000000000000815260206004820152600260248201527f5a4f0000000000000000000000000000000000000000000000000000000000006044820152606401610386565b60005b81811015611775576000838383818110611699576116996130df565b90506020020160208101906116ae9190612c61565b73ffffffffffffffffffffffffffffffffffffffff16141580156116ff57506116ff8383838181106116e2576116e26130df565b90506020020160208101906116f79190612c61565b6066906125ef565b611765576040517f08c379a000000000000000000000000000000000000000000000000000000000815260206004820152600160248201527f4f000000000000000000000000000000000000000000000000000000000000006044820152606401610386565b61176e8161338c565b905061167d565b507f9194d2f68cef6a457d2d5946cbcd9992b460839b42100183d98128a83175ef7e82826040516117a7929190613a4d565b60405180910390a15050565b600054610100900460ff16158080156117d35750600054600160ff909116105b806117ed5750303b1580156117ed575060005460ff166001145b611879576040517f08c379a000000000000000000000000000000000000000000000000000000000815260206004820152602e60248201527f496e697469616c697a61626c653a20636f6e747261637420697320616c72656160448201527f647920696e697469616c697a65640000000000000000000000000000000000006064820152608401610386565b600080547fffffffffffffffffffffffffffffffffffffffffffffffffffffffffffffff0016600117905580156118d757600080547fffffffffffffffffffffffffffffffffffffffffffffffffffffffffffff00ff166101001790555b6118e082612578565b801561193f57600080547fffffffffffffffffffffffffffffffffffffffffffffffffffffffffffff00ff169055604051600181527f7f26b83ff96e1f2b6a682f133852f6798a09c465da95921460cefb3847402498906020016117a7565b5050565b61194b6124f7565b60008151116119b6576040517f08c379a000000000000000000000000000000000000000000000000000000000815260206004820152600260248201527f5a4f0000000000000000000000000000000000000000000000000000000000006044820152606401610386565b60005b8151811015611a65576119ef8282815181106119d7576119d76130df565b6020026020010151606661261190919063ffffffff16565b611a55576040517f08c379a000000000000000000000000000000000000000000000000000000000815260206004820152600260248201527f4e4f0000000000000000000000000000000000000000000000000000000000006044820152606401610386565b611a5e8161338c565b90506119b9565b507f626c7b0cc629b069bd6acf919cc498afe43e1e4da7fc425182040d1a093e9687816040516116009190612c07565b611a9d6124f7565b83611b04576040517f08c379a000000000000000000000000000000000000000000000000000000000815260206004820152600260248201527f5a560000000000000000000000000000000000000000000000000000000000006044820152606401610386565b73ffffffffffffffffffffffffffffffffffffffff8116611b81576040517f08c379a000000000000000000000000000000000000000000000000000000000815260206004820152600360248201527f545a4100000000000000000000000000000000000000000000000000000000006044820152606401610386565b60005b84811015611d385730868683818110611b9f57611b9f6130df565b9050602002016020810190611bb49190612c61565b73ffffffffffffffffffffffffffffffffffffffff1663481c6a756040518163ffffffff1660e01b8152600401602060405180830381865afa158015611bfe573d6000803e3d6000fd5b505050506040513d601f19601f82011682018060405250810190611c22919061307d565b73ffffffffffffffffffffffffffffffffffffffff1614611c9f576040517f08c379a000000000000000000000000000000000000000000000000000000000815260206004820152600260248201527f4e4d0000000000000000000000000000000000000000000000000000000000006044820152606401610386565b858582818110611cb157611cb16130df565b9050602002016020810190611cc69190612c61565b73ffffffffffffffffffffffffffffffffffffffff16637ecd67176040518163ffffffff1660e01b8152600401600060405180830381600087803b158015611d0d57600080fd5b505af1158015611d21573d6000803e3d6000fd5b505050508080611d309061338c565b915050611b84565b5060005b82811015611e61576000848483818110611d5857611d586130df565b9050602002016020810190611d6d9190612c61565b6040517f70a0823100000000000000000000000000000000000000000000000000000000815230600482015273ffffffffffffffffffffffffffffffffffffffff91909116906370a0823190602401602060405180830381865afa158015611dd9573d6000803e3d6000fd5b505050506040513d601f19601f82011682018060405250810190611dfd91906130c6565b90508015611e4e57611e4e8382878786818110611e1c57611e1c6130df565b9050602002016020810190611e319190612c61565b73ffffffffffffffffffffffffffffffffffffffff169190612633565b5080611e598161338c565b915050611d3c565b505050505050565b611e716124f7565b73ffffffffffffffffffffffffffffffffffffffff8116611f14576040517f08c379a000000000000000000000000000000000000000000000000000000000815260206004820152602660248201527f4f776e61626c653a206e6577206f776e657220697320746865207a65726f206160448201527f64647265737300000000000000000000000000000000000000000000000000006064820152608401610386565b611f1d81612578565b50565b73ffffffffffffffffffffffffffffffffffffffff8116600090815260018301602052604081205415155b9392505050565b60008183511015611fbf576040517f08c379a000000000000000000000000000000000000000000000000000000000815260206004820152600360248201527f4f4f5200000000000000000000000000000000000000000000000000000000006044820152606401610386565b60005b82811015612010578462ffffff16848281518110611fe257611fe26130df565b602002602001015162ffffff1603611ffe576001915050611f4b565b806120088161338c565b915050611fc2565b506000949350505050565b6040517f1698ee8200000000000000000000000000000000000000000000000000000000815273ffffffffffffffffffffffffffffffffffffffff8481166004830152838116602483015262ffffff831660448301526000917f000000000000000000000000000000000000000000000000000000000000000090911690631698ee8290606401602060405180830381865afa1580156120bf573d6000803e3d6000fd5b505050506040513d601f19601f820116820180604052508101906120e3919061307d565b905073ffffffffffffffffffffffffffffffffffffffff8116611f4b576040517f08c379a000000000000000000000000000000000000000000000000000000000815260206004820152600260248201527f4e500000000000000000000000000000000000000000000000000000000000006044820152606401610386565b600080807fffffffffffffffffffffffffffffffffffffffffffffffffffffffffffffffff858709858702925082811083820303915050806000036121b957600084116121ae57600080fd5b508290049050611f4b565b8084116121c557600080fd5b60008486880960026001871981018816978890046003810283188082028403028082028403028082028403028082028403028082028403029081029092039091026000889003889004909101858311909403939093029303949094049190911702949350505050565b600061227a61226785871161224c576122478787613a61565b612256565b6122568688613a61565b61226185600a61337d565b87612162565b61271061227585600a61337d565b612162565b90508262ffffff168111156122eb576040517f08c379a000000000000000000000000000000000000000000000000000000000815260206004820152600c60248201527f6d6178446576696174696f6e00000000000000000000000000000000000000006044820152606401610386565b5050505050565b8460400151608001511561241d5761238b8473ffffffffffffffffffffffffffffffffffffffff1663e84b8fe56040518163ffffffff1660e01b8152600401602060405180830381865afa15801561234e573d6000803e3d6000fd5b505050506040513d601f19601f8201168201806040525081019061237291906130c6565b61237e85612710613a78565b62ffffff16612710612162565b6040860151606001516123b1906123a385600a61337d565b886040015160400151612162565b11612418576040517f08c379a000000000000000000000000000000000000000000000000000000000815260206004820152600260248201527f53300000000000000000000000000000000000000000000000000000000000006044820152606401610386565b6122eb565b61246b8473ffffffffffffffffffffffffffffffffffffffff1663a941ada96040518163ffffffff1660e01b8152600401602060405180830381865afa15801561234e573d6000803e3d6000fd5b604086015160600151612483906123a384600a61337d565b116122eb576040517f08c379a000000000000000000000000000000000000000000000000000000000815260206004820152600260248201527f53310000000000000000000000000000000000000000000000000000000000006044820152606401610386565b60606000611f4b836126c5565b60335473ffffffffffffffffffffffffffffffffffffffff163314610ad9576040517f08c379a000000000000000000000000000000000000000000000000000000000815260206004820181905260248201527f4f776e61626c653a2063616c6c6572206973206e6f7420746865206f776e65726044820152606401610386565b6033805473ffffffffffffffffffffffffffffffffffffffff8381167fffffffffffffffffffffffff0000000000000000000000000000000000000000831681179093556040519116919082907f8be0079c531659141344cd1fd0a4f28419497f9722a3daafe3b4186f6b6457e090600090a35050565b6000611f4b8373ffffffffffffffffffffffffffffffffffffffff8416612721565b6000611f4b8373ffffffffffffffffffffffffffffffffffffffff8416612770565b6040805173ffffffffffffffffffffffffffffffffffffffff8416602482015260448082018490528251808303909101815260649091019091526020810180517bffffffffffffffffffffffffffffffffffffffffffffffffffffffff167fa9059cbb000000000000000000000000000000000000000000000000000000001790526126c0908490612863565b505050565b60608160000180548060200260200160405190810160405280929190818152602001828054801561271557602002820191906000526020600020905b815481526020019060010190808311612701575b50505050509050919050565b600081815260018301602052604081205461276857508154600181810184556000848152602080822090930184905584548482528286019093526040902091909155610ac1565b506000610ac1565b60008181526001830160205260408120548015612859576000612794600183613a61565b85549091506000906127a890600190613a61565b905081811461280d5760008660000182815481106127c8576127c86130df565b90600052602060002001549050808760000184815481106127eb576127eb6130df565b6000918252602080832090910192909255918252600188019052604090208390555b855486908061281e5761281e613a9c565b600190038181906000526020600020016000905590558560010160008681526020019081526020016000206000905560019350505050610ac1565b6000915050610ac1565b60006128c5826040518060400160405280602081526020017f5361666545524332303a206c6f772d6c6576656c2063616c6c206661696c65648152508573ffffffffffffffffffffffffffffffffffffffff1661296f9092919063ffffffff16565b8051909150156126c057808060200190518101906128e39190613acb565b6126c0576040517f08c379a000000000000000000000000000000000000000000000000000000000815260206004820152602a60248201527f5361666545524332303a204552433230206f7065726174696f6e20646964206e60448201527f6f742073756363656564000000000000000000000000000000000000000000006064820152608401610386565b606061297e8484600085612986565b949350505050565b606082471015612a18576040517f08c379a000000000000000000000000000000000000000000000000000000000815260206004820152602660248201527f416464726573733a20696e73756666696369656e742062616c616e636520666f60448201527f722063616c6c00000000000000000000000000000000000000000000000000006064820152608401610386565b6000808673ffffffffffffffffffffffffffffffffffffffff168587604051612a419190613b18565b60006040518083038185875af1925050503d8060008114612a7e576040519150601f19603f3d011682016040523d82523d6000602084013e612a83565b606091505b5091509150612a9487838387612a9f565b979650505050505050565b60608315612b35578251600003612b2e5773ffffffffffffffffffffffffffffffffffffffff85163b612b2e576040517f08c379a000000000000000000000000000000000000000000000000000000000815260206004820152601d60248201527f416464726573733a2063616c6c20746f206e6f6e2d636f6e74726163740000006044820152606401610386565b508161297e565b61297e8383815115612b4a5781518083602001fd5b806040517f08c379a00000000000000000000000000000000000000000000000000000000081526004016103869190613b2a565b73ffffffffffffffffffffffffffffffffffffffff81168114611f1d57600080fd5b8035612bab81612b7e565b919050565b60008060408385031215612bc357600080fd5b8235612bce81612b7e565b9150602083013567ffffffffffffffff811115612bea57600080fd5b830160e08186031215612bfc57600080fd5b809150509250929050565b6020808252825182820181905260009190848201906040850190845b81811015612c5557835173ffffffffffffffffffffffffffffffffffffffff1683529284019291840191600101612c23565b50909695505050505050565b600060208284031215612c7357600080fd5b8135611f4b81612b7e565b60008083601f840112612c9057600080fd5b50813567ffffffffffffffff811115612ca857600080fd5b6020830191508360208260051b8501011115612cc357600080fd5b9250929050565b61ffff81168114611f1d57600080fd5b600080600060408486031215612cef57600080fd5b833567ffffffffffffffff811115612d0657600080fd5b612d1286828701612c7e565b9094509250506020840135612d2681612cca565b809150509250925092565b600060a08284031215612d4357600080fd5b50919050565b60008060208385031215612d5c57600080fd5b823567ffffffffffffffff811115612d7357600080fd5b612d7f85828601612c7e565b90969095509350505050565b7f4e487b7100000000000000000000000000000000000000000000000000000000600052604160045260246000fd5b6040805190810167ffffffffffffffff81118282101715612ddd57612ddd612d8b565b60405290565b6040516060810167ffffffffffffffff81118282101715612ddd57612ddd612d8b565b60405160a0810167ffffffffffffffff81118282101715612ddd57612ddd612d8b565b60405160e0810167ffffffffffffffff81118282101715612ddd57612ddd612d8b565b604051601f82017fffffffffffffffffffffffffffffffffffffffffffffffffffffffffffffffe016810167ffffffffffffffff81118282101715612e9357612e93612d8b565b604052919050565b600067ffffffffffffffff821115612eb557612eb5612d8b565b5060051b60200190565b60006020808385031215612ed257600080fd5b823567ffffffffffffffff811115612ee957600080fd5b8301601f81018513612efa57600080fd5b8035612f0d612f0882612e9b565b612e4c565b81815260059190911b82018301908381019087831115612f2c57600080fd5b928401925b82841015612a94578335612f4481612b7e565b82529284019290840190612f31565b600080600080600060608688031215612f6b57600080fd5b853567ffffffffffffffff80821115612f8357600080fd5b612f8f89838a01612c7e565b90975095506020880135915080821115612fa857600080fd5b50612fb588828901612c7e565b9094509250506040860135612fc981612b7e565b809150509295509295909350565b60008083357fffffffffffffffffffffffffffffffffffffffffffffffffffffffffffffffe184360301811261300c57600080fd5b83018035915067ffffffffffffffff82111561302757600080fd5b6020019150600781901b3603821315612cc357600080fd5b600082357fffffffffffffffffffffffffffffffffffffffffffffffffffffffffffffff6183360301811261307357600080fd5b9190910192915050565b60006020828403121561308f57600080fd5b8151611f4b81612b7e565b805160ff81168114612bab57600080fd5b6000602082840312156130bd57600080fd5b611f4b8261309a565b6000602082840312156130d857600080fd5b5051919050565b7f4e487b7100000000000000000000000000000000000000000000000000000000600052603260045260246000fd5b803562ffffff81168114612bab57600080fd5b60006020828403121561313357600080fd5b611f4b8261310e565b8060020b8114611f1d57600080fd5b8015158114611f1d57600080fd5b600080600080600080600060e0888a03121561317457600080fd5b875161317f81612b7e565b60208901519097506131908161313c565b60408901519096506131a181612cca565b60608901519095506131b281612cca565b60808901519094506131c381612cca565b92506131d160a0890161309a565b915060c08801516131e18161314b565b8091505092959891949750929550565b7f4e487b7100000000000000000000000000000000000000000000000000000000600052601160045260246000fd5b6000817fffffffffffffffffffffffffffffffffffffffffffffffffffffffffffffffff0483118215151615613258576132586131f1565b500290565b600181815b808511156132b657817fffffffffffffffffffffffffffffffffffffffffffffffffffffffffffffffff0482111561329c5761329c6131f1565b808516156132a957918102915b93841c9390800290613262565b509250929050565b6000826132cd57506001610ac1565b816132da57506000610ac1565b81600181146132f057600281146132fa57613316565b6001915050610ac1565b60ff84111561330b5761330b6131f1565b50506001821b610ac1565b5060208310610133831016604e8410600b8410161715613339575081810a610ac1565b613343838361325d565b807fffffffffffffffffffffffffffffffffffffffffffffffffffffffffffffffff04821115613375576133756131f1565b029392505050565b6000611f4b60ff8416836132be565b60007fffffffffffffffffffffffffffffffffffffffffffffffffffffffffffffffff82036133bd576133bd6131f1565b5060010190565b80356fffffffffffffffffffffffffffffffff81168114612bab57600080fd5b600082601f8301126133f557600080fd5b81356020613405612f0883612e9b565b82815260079290921b8401810191818101908684111561342457600080fd5b8286015b848110156134d85780880360808112156134425760008081fd5b61344a612dba565b613453836133c4565b81526060807fffffffffffffffffffffffffffffffffffffffffffffffffffffffffffffffe0840112156134875760008081fd5b61348f612de3565b92508684013561349e8161313c565b83526040848101356134af8161313c565b848901526134be85830161310e565b908401525080860191909152835291830191608001613428565b509695505050505050565b8035612bab8161314b565b600060a0828403121561350057600080fd5b613508612e06565b9050813567ffffffffffffffff8082111561352257600080fd5b818401915084601f83011261353657600080fd5b813560208282111561354a5761354a612d8b565b61357a817fffffffffffffffffffffffffffffffffffffffffffffffffffffffffffffffe0601f85011601612e4c565b9250818352868183860101111561359057600080fd5b818185018285013760008183850101528285526135ae818701612ba0565b818601525050505060408201356040820152606082013560608201526135d6608083016134e3565b608082015292915050565b600060e082360312156135f357600080fd5b6135fb612e29565b823567ffffffffffffffff8082111561361357600080fd5b61361f368387016133e4565b8352602085013591508082111561363557600080fd5b613641368387016133e4565b6020840152604085013591508082111561365a57600080fd5b50613667368286016134ee565b604083015250606083013560608201526080830135608082015260a083013560a082015260c083013560c082015280915050919050565b60008083357fffffffffffffffffffffffffffffffffffffffffffffffffffffffffffffffe18436030181126136d357600080fd5b830160208101925035905067ffffffffffffffff8111156136f357600080fd5b8060071b3603831315612cc357600080fd5b8183526000602080850194508260005b8581101561378f576fffffffffffffffffffffffffffffffff613737836133c4565b168752828201356137478161313c565b600290810b88850152604090838201356137608161313c565b900b90880152606062ffffff61377784830161310e565b16908801526080968701969190910190600101613715565b509495945050505050565b8183528181602085013750600060208284010152600060207fffffffffffffffffffffffffffffffffffffffffffffffffffffffffffffffe0601f840116840101905092915050565b600081357fffffffffffffffffffffffffffffffffffffffffffffffffffffffffffffffe183360301811261381757600080fd5b8201803567ffffffffffffffff81111561383057600080fd5b80360384131561383f57600080fd5b60a0855261385460a08601826020850161379a565b91505061386360208401612ba0565b73ffffffffffffffffffffffffffffffffffffffff811660208601525060408301356040850152606083013560608501526138a0608084016134e3565b8015156080860152509392505050565b6020815260006138c0838461369e565b60e060208501526138d661010085018284613705565b9150506138e6602085018561369e565b7fffffffffffffffffffffffffffffffffffffffffffffffffffffffffffffffe08086850301604087015261391c848385613705565b9350604087013592507fffffffffffffffffffffffffffffffffffffffffffffffffffffffffffffff6187360301831261395557600080fd5b8584030160608601525061396b828287016137e3565b91505060608401356080840152608084013560a084015260a084013560c084015260c084013560e08401528091505092915050565b8183526000602080850194508260005b8581101561378f5781356139c381612b7e565b73ffffffffffffffffffffffffffffffffffffffff16875295820195908201906001016139b0565b6040815260006139ff6040830185876139a0565b905061ffff83166020830152949350505050565b600060208284031215613a2557600080fd5b8135611f4b81612cca565b600060208284031215613a4257600080fd5b8151611f4b81612cca565b60208152600061297e6020830184866139a0565b600082821015613a7357613a736131f1565b500390565b600062ffffff83811690831681811015613a9457613a946131f1565b039392505050565b7f4e487b7100000000000000000000000000000000000000000000000000000000600052603160045260246000fd5b600060208284031215613add57600080fd5b8151611f4b8161314b565b60005b83811015613b03578181015183820152602001613aeb565b83811115613b12576000848401525b50505050565b60008251613073818460208701613ae8565b6020815260008251806020840152613b49816040850160208701613ae8565b601f017fffffffffffffffffffffffffffffffffffffffffffffffffffffffffffffffe016919091016040019291505056fea26469706673582212207369585d21f5fb58461a217c87f500d074e333fafee78fbd119a2435216aa7ed64736f6c634300080d0033",
  "devdoc": {
    "details": "Most simple manager to manage public vault on Arrakis V2.",
    "kind": "dev",
    "methods": {
      "addOperators(address[])": {
        "details": "only callable by owner",
        "params": {
          "operators_": "list of operators to add"
        }
      },
      "getOperators()": {
        "returns": {
          "_0": "operators array of address representing operators"
        }
      },
      "initManagement((address,address,uint24,uint24,uint16))": {
        "details": "onced initialize Arrakis will start to manage the initialize vault",
        "params": {
          "params": "SetupParams struct containing data for manager vault"
        }
      },
      "isOperator(address)": {
        "params": {
          "operator_": "address to check if it's an operator"
        },
        "returns": {
          "_0": "return true if inputed address is an operator otherwise return false"
        }
      },
      "owner()": {
        "details": "Returns the address of the current owner."
      },
      "rebalance(address,((uint128,(int24,int24,uint24))[],(uint128,(int24,int24,uint24))[],(bytes,address,uint256,uint256,bool),uint256,uint256,uint256,uint256))": {
        "details": "only an operator of the contract Arrakis Finance can call the contract",
        "params": {
          "rebalanceParams_": "rebalance parameters.",
          "vault_": "address of the Arrakis V2 vault to rebalance"
        }
      },
      "removeOperators(address[])": {
        "details": "only callable by owner",
        "params": {
          "operators_": "list of operators to remove"
        }
      },
      "renounceOwnership()": {
        "details": "Leaves the contract without owner. It will not be possible to call `onlyOwner` functions anymore. Can only be called by the current owner. NOTE: Renouncing ownership will leave the contract without an owner, thereby removing any functionality that is only available to the owner."
      },
      "setManagerFee(address[],uint16)": {
        "details": "only the owner of simple manager call this function",
        "params": {
          "managerFeeBPS_": "new value of manager fee bps",
          "vaults_": "array of vaults where to update manager fee bps"
        }
      },
      "transferOwnership(address)": {
        "details": "Transfers ownership of the contract to a new account (`newOwner`). Can only be called by the current owner."
      },
      "withdrawAndCollectFees(address[],address[],address)": {
        "details": "only the owner of the contract Arrakis Finance can call the contract",
        "params": {
          "target": "receiver of fees collection",
          "tokens_": "array of tokens where to withdraw fees",
          "vaults_": "array of vaults where to collect fees"
        }
      }
    },
    "title": "SimpleManager",
    "version": 1
  },
  "userdoc": {
    "kind": "user",
    "methods": {
      "addOperators(address[])": {
        "notice": "for adding operators"
      },
      "getOperators()": {
        "notice": "get list of operators"
      },
      "initManagement((address,address,uint24,uint24,uint16))": {
        "notice": "Initialize management"
      },
      "isOperator(address)": {
        "notice": "check if it's operators"
      },
      "rebalance(address,((uint128,(int24,int24,uint24))[],(uint128,(int24,int24,uint24))[],(bytes,address,uint256,uint256,bool),uint256,uint256,uint256,uint256))": {
        "notice": "Rebalance vault"
      },
      "removeOperators(address[])": {
        "notice": "for removing operators"
      },
      "setManagerFee(address[],uint16)": {
        "notice": "Set manager fee bps as manager"
      },
      "withdrawAndCollectFees(address[],address[],address)": {
        "notice": "Withdraw and Collect Fees generated by vaults on Uni v3"
      }
    },
    "version": 1
  },
  "storageLayout": {
    "storage": [
      {
        "astId": 1311,
        "contract": "contracts/SimpleManager.sol:SimpleManager",
        "label": "_initialized",
        "offset": 0,
        "slot": "0",
        "type": "t_uint8"
      },
      {
        "astId": 1314,
        "contract": "contracts/SimpleManager.sol:SimpleManager",
        "label": "_initializing",
        "offset": 1,
        "slot": "0",
        "type": "t_bool"
      },
      {
        "astId": 1798,
        "contract": "contracts/SimpleManager.sol:SimpleManager",
        "label": "__gap",
        "offset": 0,
        "slot": "1",
        "type": "t_array(t_uint256)50_storage"
      },
      {
        "astId": 1183,
        "contract": "contracts/SimpleManager.sol:SimpleManager",
        "label": "_owner",
        "offset": 0,
        "slot": "51",
        "type": "t_address"
      },
      {
        "astId": 1303,
        "contract": "contracts/SimpleManager.sol:SimpleManager",
        "label": "__gap",
        "offset": 0,
        "slot": "52",
        "type": "t_array(t_uint256)49_storage"
      },
      {
        "astId": 5908,
        "contract": "contracts/SimpleManager.sol:SimpleManager",
        "label": "vaults",
        "offset": 0,
        "slot": "101",
        "type": "t_mapping(t_address,t_struct(VaultInfo)5888_storage)"
      },
      {
        "astId": 5911,
        "contract": "contracts/SimpleManager.sol:SimpleManager",
        "label": "_operators",
        "offset": 0,
        "slot": "102",
        "type": "t_struct(AddressSet)5025_storage"
      }
    ],
    "types": {
      "t_address": {
        "encoding": "inplace",
        "label": "address",
        "numberOfBytes": "20"
      },
      "t_array(t_bytes32)dyn_storage": {
        "base": "t_bytes32",
        "encoding": "dynamic_array",
        "label": "bytes32[]",
        "numberOfBytes": "32"
      },
      "t_array(t_uint256)49_storage": {
        "base": "t_uint256",
        "encoding": "inplace",
        "label": "uint256[49]",
        "numberOfBytes": "1568"
      },
      "t_array(t_uint256)50_storage": {
        "base": "t_uint256",
        "encoding": "inplace",
        "label": "uint256[50]",
        "numberOfBytes": "1600"
      },
      "t_bool": {
        "encoding": "inplace",
        "label": "bool",
        "numberOfBytes": "1"
      },
      "t_bytes32": {
        "encoding": "inplace",
        "label": "bytes32",
        "numberOfBytes": "32"
      },
      "t_contract(IOracleWrapper)6989": {
        "encoding": "inplace",
        "label": "contract IOracleWrapper",
        "numberOfBytes": "20"
      },
      "t_mapping(t_address,t_struct(VaultInfo)5888_storage)": {
        "encoding": "mapping",
        "key": "t_address",
        "label": "mapping(address => struct SimpleManager.VaultInfo)",
        "numberOfBytes": "32",
        "value": "t_struct(VaultInfo)5888_storage"
      },
      "t_mapping(t_bytes32,t_uint256)": {
        "encoding": "mapping",
        "key": "t_bytes32",
        "label": "mapping(bytes32 => uint256)",
        "numberOfBytes": "32",
        "value": "t_uint256"
      },
      "t_struct(AddressSet)5025_storage": {
        "encoding": "inplace",
        "label": "struct EnumerableSet.AddressSet",
        "members": [
          {
            "astId": 5024,
            "contract": "contracts/SimpleManager.sol:SimpleManager",
            "label": "_inner",
            "offset": 0,
            "slot": "0",
            "type": "t_struct(Set)4710_storage"
          }
        ],
        "numberOfBytes": "64"
      },
      "t_struct(Set)4710_storage": {
        "encoding": "inplace",
        "label": "struct EnumerableSet.Set",
        "members": [
          {
            "astId": 4705,
            "contract": "contracts/SimpleManager.sol:SimpleManager",
            "label": "_values",
            "offset": 0,
            "slot": "0",
            "type": "t_array(t_bytes32)dyn_storage"
          },
          {
            "astId": 4709,
            "contract": "contracts/SimpleManager.sol:SimpleManager",
            "label": "_indexes",
            "offset": 0,
            "slot": "1",
            "type": "t_mapping(t_bytes32,t_uint256)"
          }
        ],
        "numberOfBytes": "64"
      },
      "t_struct(VaultInfo)5888_storage": {
        "encoding": "inplace",
        "label": "struct SimpleManager.VaultInfo",
        "members": [
          {
            "astId": 5881,
            "contract": "contracts/SimpleManager.sol:SimpleManager",
            "label": "oracle",
            "offset": 0,
            "slot": "0",
            "type": "t_contract(IOracleWrapper)6989"
          },
          {
            "astId": 5883,
            "contract": "contracts/SimpleManager.sol:SimpleManager",
            "label": "maxDeviation",
            "offset": 20,
            "slot": "0",
            "type": "t_uint24"
          },
          {
            "astId": 5885,
            "contract": "contracts/SimpleManager.sol:SimpleManager",
            "label": "maxSlippage",
            "offset": 23,
            "slot": "0",
            "type": "t_uint24"
          },
          {
            "astId": 5887,
            "contract": "contracts/SimpleManager.sol:SimpleManager",
            "label": "managerFeeBPS",
            "offset": 26,
            "slot": "0",
            "type": "t_uint16"
          }
        ],
        "numberOfBytes": "32"
      },
      "t_uint16": {
        "encoding": "inplace",
        "label": "uint16",
        "numberOfBytes": "2"
      },
      "t_uint24": {
        "encoding": "inplace",
        "label": "uint24",
        "numberOfBytes": "3"
      },
      "t_uint256": {
        "encoding": "inplace",
        "label": "uint256",
        "numberOfBytes": "32"
      },
      "t_uint8": {
        "encoding": "inplace",
        "label": "uint8",
        "numberOfBytes": "1"
      }
    }
  }
}