{
  "address": "0x64AB6C28423Bd60611199a01c6720a0576D9a9fa",
  "abi": [
    {
      "inputs": [
        {
          "internalType": "contract IUniswapV3Factory",
          "name": "uniFactory_",
          "type": "address"
        }
      ],
      "stateMutability": "nonpayable",
      "type": "constructor"
    },
    {
      "anonymous": false,
      "inputs": [
        {
          "indexed": false,
          "internalType": "address[]",
          "name": "operators",
          "type": "address[]"
        }
      ],
      "name": "AddOperators",
      "type": "event"
    },
    {
      "anonymous": false,
      "inputs": [
        {
          "indexed": false,
          "internalType": "address",
          "name": "vault",
          "type": "address"
        },
        {
          "indexed": false,
          "internalType": "address",
          "name": "oracle",
          "type": "address"
        },
        {
          "indexed": false,
          "internalType": "uint24",
          "name": "maxDeviation",
          "type": "uint24"
        },
        {
          "indexed": false,
          "internalType": "uint24",
          "name": "maxSlippage",
          "type": "uint24"
        },
        {
          "indexed": false,
          "internalType": "uint16",
          "name": "managerFeeBPS",
          "type": "uint16"
        },
        {
          "indexed": false,
          "internalType": "uint256",
          "name": "coolDownPeriod",
          "type": "uint256"
        }
      ],
      "name": "InitManagement",
      "type": "event"
    },
    {
      "anonymous": false,
      "inputs": [
        {
          "indexed": false,
          "internalType": "uint8",
          "name": "version",
          "type": "uint8"
        }
      ],
      "name": "Initialized",
      "type": "event"
    },
    {
      "anonymous": false,
      "inputs": [
        {
          "indexed": true,
          "internalType": "address",
          "name": "previousOwner",
          "type": "address"
        },
        {
          "indexed": true,
          "internalType": "address",
          "name": "newOwner",
          "type": "address"
        }
      ],
      "name": "OwnershipTransferred",
      "type": "event"
    },
    {
      "anonymous": false,
      "inputs": [
        {
          "indexed": false,
          "internalType": "address",
          "name": "vault",
          "type": "address"
        },
        {
          "indexed": false,
          "internalType": "address",
          "name": "caller",
          "type": "address"
        }
      ],
      "name": "RebalanceVault",
      "type": "event"
    },
    {
      "anonymous": false,
      "inputs": [
        {
          "indexed": false,
          "internalType": "address[]",
          "name": "operators",
          "type": "address[]"
        }
      ],
      "name": "RemoveOperators",
      "type": "event"
    },
    {
      "anonymous": false,
      "inputs": [
        {
          "indexed": false,
          "internalType": "address[]",
          "name": "vaults",
          "type": "address[]"
        },
        {
          "indexed": false,
          "internalType": "uint16",
          "name": "managerFeeBPS",
          "type": "uint16"
        }
      ],
      "name": "SetManagerFeeBPS",
      "type": "event"
    },
    {
      "anonymous": false,
      "inputs": [
        {
          "indexed": false,
          "internalType": "address",
          "name": "vault",
          "type": "address"
        },
        {
          "indexed": false,
          "internalType": "uint16",
          "name": "managerFeeBPS",
          "type": "uint16"
        }
      ],
      "name": "SetManagerFeeBPS",
      "type": "event"
    },
    {
      "inputs": [
        {
          "internalType": "address[]",
          "name": "operators_",
          "type": "address[]"
        }
      ],
      "name": "addOperators",
      "outputs": [],
      "stateMutability": "nonpayable",
      "type": "function"
    },
    {
      "inputs": [],
      "name": "getOperators",
      "outputs": [
        {
          "internalType": "address[]",
          "name": "",
          "type": "address[]"
        }
      ],
      "stateMutability": "view",
      "type": "function"
    },
    {
      "inputs": [
        {
          "components": [
            {
              "internalType": "address",
              "name": "vault",
              "type": "address"
            },
            {
              "internalType": "contract IOracleWrapper",
              "name": "oracle",
              "type": "address"
            },
            {
              "internalType": "uint24",
              "name": "maxDeviation",
              "type": "uint24"
            },
            {
              "internalType": "uint24",
              "name": "maxSlippage",
              "type": "uint24"
            },
            {
              "internalType": "uint16",
              "name": "managerFeeBPS",
              "type": "uint16"
            },
            {
              "internalType": "uint256",
              "name": "coolDownPeriod",
              "type": "uint256"
            }
          ],
          "internalType": "struct SimpleManager.SetupParams",
          "name": "params",
          "type": "tuple"
        }
      ],
      "name": "initManagement",
      "outputs": [],
      "stateMutability": "nonpayable",
      "type": "function"
    },
    {
      "inputs": [
        {
          "internalType": "address",
          "name": "owner_",
          "type": "address"
        }
      ],
      "name": "initialize",
      "outputs": [],
      "stateMutability": "nonpayable",
      "type": "function"
    },
    {
      "inputs": [
        {
          "internalType": "address",
          "name": "operator_",
          "type": "address"
        }
      ],
      "name": "isOperator",
      "outputs": [
        {
          "internalType": "bool",
          "name": "",
          "type": "bool"
        }
      ],
      "stateMutability": "view",
      "type": "function"
    },
    {
      "inputs": [],
      "name": "owner",
      "outputs": [
        {
          "internalType": "address",
          "name": "",
          "type": "address"
        }
      ],
      "stateMutability": "view",
      "type": "function"
    },
    {
      "inputs": [
        {
          "internalType": "address",
          "name": "vault_",
          "type": "address"
        },
        {
          "internalType": "uint24",
          "name": "operatorMaxDeviation_",
          "type": "uint24"
        },
        {
          "components": [
            {
              "components": [
                {
                  "internalType": "uint128",
                  "name": "liquidity",
                  "type": "uint128"
                },
                {
                  "components": [
                    {
                      "internalType": "int24",
                      "name": "lowerTick",
                      "type": "int24"
                    },
                    {
                      "internalType": "int24",
                      "name": "upperTick",
                      "type": "int24"
                    },
                    {
                      "internalType": "uint24",
                      "name": "feeTier",
                      "type": "uint24"
                    }
                  ],
                  "internalType": "struct Range",
                  "name": "range",
                  "type": "tuple"
                }
              ],
              "internalType": "struct PositionLiquidity[]",
              "name": "burns",
              "type": "tuple[]"
            },
            {
              "components": [
                {
                  "internalType": "uint128",
                  "name": "liquidity",
                  "type": "uint128"
                },
                {
                  "components": [
                    {
                      "internalType": "int24",
                      "name": "lowerTick",
                      "type": "int24"
                    },
                    {
                      "internalType": "int24",
                      "name": "upperTick",
                      "type": "int24"
                    },
                    {
                      "internalType": "uint24",
                      "name": "feeTier",
                      "type": "uint24"
                    }
                  ],
                  "internalType": "struct Range",
                  "name": "range",
                  "type": "tuple"
                }
              ],
              "internalType": "struct PositionLiquidity[]",
              "name": "mints",
              "type": "tuple[]"
            },
            {
              "components": [
                {
                  "internalType": "bytes",
                  "name": "payload",
                  "type": "bytes"
                },
                {
                  "internalType": "address",
                  "name": "router",
                  "type": "address"
                },
                {
                  "internalType": "uint256",
                  "name": "amountIn",
                  "type": "uint256"
                },
                {
                  "internalType": "uint256",
                  "name": "expectedMinReturn",
                  "type": "uint256"
                },
                {
                  "internalType": "bool",
                  "name": "zeroForOne",
                  "type": "bool"
                }
              ],
              "internalType": "struct SwapPayload",
              "name": "swap",
              "type": "tuple"
            },
            {
              "internalType": "uint256",
              "name": "minBurn0",
              "type": "uint256"
            },
            {
              "internalType": "uint256",
              "name": "minBurn1",
              "type": "uint256"
            },
            {
              "internalType": "uint256",
              "name": "minDeposit0",
              "type": "uint256"
            },
            {
              "internalType": "uint256",
              "name": "minDeposit1",
              "type": "uint256"
            }
          ],
          "internalType": "struct Rebalance",
          "name": "rebalanceParams_",
          "type": "tuple"
        }
      ],
      "name": "rebalance",
      "outputs": [],
      "stateMutability": "nonpayable",
      "type": "function"
    },
    {
      "inputs": [
        {
          "internalType": "address[]",
          "name": "operators_",
          "type": "address[]"
        }
      ],
      "name": "removeOperators",
      "outputs": [],
      "stateMutability": "nonpayable",
      "type": "function"
    },
    {
      "inputs": [],
      "name": "renounceOwnership",
      "outputs": [],
      "stateMutability": "nonpayable",
      "type": "function"
    },
    {
      "inputs": [
        {
          "internalType": "address[]",
          "name": "vaults_",
          "type": "address[]"
        },
        {
          "internalType": "uint16",
          "name": "managerFeeBPS_",
          "type": "uint16"
        }
      ],
      "name": "setManagerFee",
      "outputs": [],
      "stateMutability": "nonpayable",
      "type": "function"
    },
    {
      "inputs": [
        {
          "internalType": "address",
          "name": "newOwner",
          "type": "address"
        }
      ],
      "name": "transferOwnership",
      "outputs": [],
      "stateMutability": "nonpayable",
      "type": "function"
    },
    {
      "inputs": [],
      "name": "uniFactory",
      "outputs": [
        {
          "internalType": "contract IUniswapV3Factory",
          "name": "",
          "type": "address"
        }
      ],
      "stateMutability": "view",
      "type": "function"
    },
    {
      "inputs": [
        {
          "internalType": "address",
          "name": "",
          "type": "address"
        }
      ],
      "name": "vaults",
      "outputs": [
        {
          "internalType": "contract IOracleWrapper",
          "name": "oracle",
          "type": "address"
        },
        {
          "internalType": "uint24",
          "name": "maxDeviation",
          "type": "uint24"
        },
        {
          "internalType": "uint24",
          "name": "maxSlippage",
          "type": "uint24"
        },
        {
          "internalType": "uint16",
          "name": "managerFeeBPS",
          "type": "uint16"
        },
        {
          "internalType": "uint256",
          "name": "coolDownPeriod",
          "type": "uint256"
        },
        {
          "internalType": "uint256",
          "name": "lastRebalanceTimestamp",
          "type": "uint256"
        }
      ],
      "stateMutability": "view",
      "type": "function"
    },
    {
      "inputs": [
        {
          "internalType": "contract IArrakisV2[]",
          "name": "vaults_",
          "type": "address[]"
        },
        {
          "internalType": "contract IERC20[]",
          "name": "tokens_",
          "type": "address[]"
        },
        {
          "internalType": "address",
          "name": "target",
          "type": "address"
        }
      ],
      "name": "withdrawAndCollectFees",
      "outputs": [],
      "stateMutability": "nonpayable",
      "type": "function"
    }
  ],
  "transactionHash": "0xb5160053a7635979ed381b8e443bf1bbdb11261a693e024afac21e37605beff4",
  "args": [
    "0x1F98431c8aD98523631AE4a59f267346ea31F984"
  ],
  "numDeployments": 1,
  "solcInputHash": "b86130006d64ef658b42f6f829476df4",
  "bytecode": "0x60a06040523480156200001157600080fd5b5060405162003fb738038062003fb7833981016040819052620000349162000088565b806001600160a01b038116620000755760405162461bcd60e51b81526020600482015260026024820152615a4160f01b604482015260640160405180910390fd5b506001600160a01b0316608052620000ba565b6000602082840312156200009b57600080fd5b81516001600160a01b0381168114620000b357600080fd5b9392505050565b608051613eda620000dd60003960008181610165015261275c0152613eda6000f3fe608060405234801561001057600080fd5b50600436106100ea5760003560e01c8063a07aea1c1161008c578063c4d66de811610066578063c4d66de8146102e9578063d365a377146102fc578063e04e20ff1461030f578063f2fde38b1461032257600080fd5b8063a07aea1c146101ca578063a19c8d6d146101dd578063a622ee7c146101f057600080fd5b8063715018a6116100c8578063715018a614610145578063725880e91461014d57806376771d4b146101605780638da5cb5b146101ac57600080fd5b806303110b89146100ef57806327a099d8146101045780636d70f7ae14610122575b600080fd5b6101026100fd366004612ecf565b610335565b005b61010c6109ec565b6040516101199190612f36565b60405180910390f35b610135610130366004612f90565b6109fd565b6040519015158152602001610119565b610102610a10565b61010261015b366004613009565b610a24565b6101877f000000000000000000000000000000000000000000000000000000000000000081565b60405173ffffffffffffffffffffffffffffffffffffffff9091168152602001610119565b60335473ffffffffffffffffffffffffffffffffffffffff16610187565b6101026101d8366004613055565b610d76565b6101026101eb366004613097565b610f20565b6102986101fe366004612f90565b60656020526000908152604090208054600182015460029092015473ffffffffffffffffffffffffffffffffffffffff82169274010000000000000000000000000000000000000000830462ffffff90811693770100000000000000000000000000000000000000000000008104909116927a01000000000000000000000000000000000000000000000000000090910461ffff16919086565b6040805173ffffffffffffffffffffffffffffffffffffffff97909716875262ffffff9586166020880152939094169285019290925261ffff166060840152608083015260a082015260c001610119565b6101026102f7366004612f90565b6117a3565b61010261030a3660046131e3565b6119b2565b61010261031d366004613277565b611b01565b610102610330366004612f90565b611ed0565b610340606633611f87565b6103ab576040517f08c379a000000000000000000000000000000000000000000000000000000000815260206004820152600260248201527f4e4f00000000000000000000000000000000000000000000000000000000000060448201526064015b60405180910390fd5b3073ffffffffffffffffffffffffffffffffffffffff168373ffffffffffffffffffffffffffffffffffffffff1663481c6a756040518163ffffffff1660e01b8152600401602060405180830381865afa15801561040d573d6000803e3d6000fd5b505050506040513d601f19601f8201168201806040525081019061043191906132fb565b73ffffffffffffffffffffffffffffffffffffffff1614801561047a575073ffffffffffffffffffffffffffffffffffffffff8381166000908152606560205260409020541615155b6104e0576040517f08c379a000000000000000000000000000000000000000000000000000000000815260206004820152600260248201527f4e4d00000000000000000000000000000000000000000000000000000000000060448201526064016103a2565b73ffffffffffffffffffffffffffffffffffffffff838116600090815260656020908152604091829020825160c0810184528154948516815274010000000000000000000000000000000000000000850462ffffff90811693820193909352770100000000000000000000000000000000000000000000008504909216928201929092527a01000000000000000000000000000000000000000000000000000090920461ffff16606083015260018101546080830181905260029091015460a0830181905242916105b091613347565b10610617576040517f08c379a000000000000000000000000000000000000000000000000000000000815260206004820152600260248201527f435000000000000000000000000000000000000000000000000000000000000060448201526064016103a2565b8262ffffff16816020015162ffffff16101561068f576040517f08c379a000000000000000000000000000000000000000000000000000000000815260206004820152600360248201527f4f4d44000000000000000000000000000000000000000000000000000000000060448201526064016103a2565b73ffffffffffffffffffffffffffffffffffffffff8416600090815260656020908152604082204260029091015581908190819081906106d19088018861335f565b915050801515806106f2575060006106ec60408901896133c7565b60400135115b156108bc578873ffffffffffffffffffffffffffffffffffffffff16630dfe16816040518163ffffffff1660e01b8152600401602060405180830381865afa158015610742573d6000803e3d6000fd5b505050506040513d601f19601f8201168201806040525081019061076691906132fb565b94508873ffffffffffffffffffffffffffffffffffffffff1663d21220a76040518163ffffffff1660e01b8152600401602060405180830381865afa1580156107b3573d6000803e3d6000fd5b505050506040513d601f19601f820116820180604052508101906107d791906132fb565b93508473ffffffffffffffffffffffffffffffffffffffff1663313ce5676040518163ffffffff1660e01b8152600401602060405180830381865afa158015610824573d6000803e3d6000fd5b505050506040513d601f19601f820116820180604052508101906108489190613416565b92508373ffffffffffffffffffffffffffffffffffffffff1663313ce5676040518163ffffffff1660e01b8152600401602060405180830381865afa158015610895573d6000803e3d6000fd5b505050506040513d601f19601f820116820180604052508101906108b99190613416565b91505b6108cc818789888888888f611fb9565b60006108db60408901896133c7565b6040013511156108ff576108ff6108f18861366b565b8751604089015186866122ca565b6040517f8712e49700000000000000000000000000000000000000000000000000000000815273ffffffffffffffffffffffffffffffffffffffff8a1690638712e49790610951908a9060040161393a565b600060405180830381600087803b15801561096b57600080fd5b505af115801561097f573d6000803e3d6000fd5b50505050610993818789888888888f611fb9565b6040805173ffffffffffffffffffffffffffffffffffffffff8b1681523360208201527f1a028edaa9ea43801b14b0322aa1eb40003d8dea5d7da150c3c011ac2f16b442910160405180910390a1505050505050505050565b60606109f860666124c9565b905090565b6000610a0a606683611f87565b92915050565b610a186124d6565b610a226000612557565b565b610a2c6124d6565b8160005b81811015610d34576000606581878785818110610a4f57610a4f613a2a565b9050602002016020810190610a649190612f90565b73ffffffffffffffffffffffffffffffffffffffff90811682526020820192909252604001600020541603610af5576040517f08c379a000000000000000000000000000000000000000000000000000000000815260206004820152600260248201527f4e4d00000000000000000000000000000000000000000000000000000000000060448201526064016103a2565b8261ffff1660656000878785818110610b1057610b10613a2a565b9050602002016020810190610b259190612f90565b73ffffffffffffffffffffffffffffffffffffffff1681526020810191909152604001600020547a010000000000000000000000000000000000000000000000000000900461ffff1603610bd5576040517f08c379a000000000000000000000000000000000000000000000000000000000815260206004820152600260248201527f4e5500000000000000000000000000000000000000000000000000000000000060448201526064016103a2565b8260656000878785818110610bec57610bec613a2a565b9050602002016020810190610c019190612f90565b73ffffffffffffffffffffffffffffffffffffffff1681526020810191909152604001600020805461ffff929092167a010000000000000000000000000000000000000000000000000000027fffffffff0000ffffffffffffffffffffffffffffffffffffffffffffffffffff909216919091179055848482818110610c8957610c89613a2a565b9050602002016020810190610c9e9190612f90565b6040517f4794c84a00000000000000000000000000000000000000000000000000000000815261ffff8516600482015273ffffffffffffffffffffffffffffffffffffffff9190911690634794c84a90602401600060405180830381600087803b158015610d0b57600080fd5b505af1158015610d1f573d6000803e3d6000fd5b5050505080610d2d90613a59565b9050610a30565b507fbecde287111150eedcab9153c0e824c95118f3814e270eb7c1c0089e67e63fe7848484604051610d6893929190613adc565b60405180910390a150505050565b610d7e6124d6565b8080610de6576040517f08c379a000000000000000000000000000000000000000000000000000000000815260206004820152600260248201527f5a4f00000000000000000000000000000000000000000000000000000000000060448201526064016103a2565b60005b81811015610ee1576000848483818110610e0557610e05613a2a565b9050602002016020810190610e1a9190612f90565b73ffffffffffffffffffffffffffffffffffffffff1614158015610e6b5750610e6b848483818110610e4e57610e4e613a2a565b9050602002016020810190610e639190612f90565b6066906125ce565b610ed1576040517f08c379a000000000000000000000000000000000000000000000000000000000815260206004820152600160248201527f4f0000000000000000000000000000000000000000000000000000000000000060448201526064016103a2565b610eda81613a59565b9050610de9565b507f9194d2f68cef6a457d2d5946cbcd9992b460839b42100183d98128a83175ef7e8383604051610f13929190613b04565b60405180910390a1505050565b610f286124d6565b610f386040820160208301612f90565b73ffffffffffffffffffffffffffffffffffffffff8116610fb5576040517f08c379a000000000000000000000000000000000000000000000000000000000815260206004820152600260248201527f5a4100000000000000000000000000000000000000000000000000000000000060448201526064016103a2565b6000610fc76060840160408501613b18565b62ffffff1611611033576040517f08c379a000000000000000000000000000000000000000000000000000000000815260206004820152600260248201527f444e00000000000000000000000000000000000000000000000000000000000060448201526064016103a2565b6110406020830183612f90565b73ffffffffffffffffffffffffffffffffffffffff1663481c6a756040518163ffffffff1660e01b8152600401602060405180830381865afa15801561108a573d6000803e3d6000fd5b505050506040513d601f19601f820116820180604052508101906110ae91906132fb565b73ffffffffffffffffffffffffffffffffffffffff163073ffffffffffffffffffffffffffffffffffffffff1614611142576040517f08c379a000000000000000000000000000000000000000000000000000000000815260206004820152600260248201527f4e4d00000000000000000000000000000000000000000000000000000000000060448201526064016103a2565b60006065816111546020860186612f90565b73ffffffffffffffffffffffffffffffffffffffff908116825260208201929092526040016000205416146111e5576040517f08c379a000000000000000000000000000000000000000000000000000000000815260206004820152600260248201527f415600000000000000000000000000000000000000000000000000000000000060448201526064016103a2565b60006111f760a0840160808501613b33565b61ffff1611611262576040517f08c379a000000000000000000000000000000000000000000000000000000000815260206004820152600360248201527f4d4642000000000000000000000000000000000000000000000000000000000060448201526064016103a2565b6103e86112756080840160608501613b18565b62ffffff1611156112e2576040517f08c379a000000000000000000000000000000000000000000000000000000000815260206004820152600260248201527f4d5300000000000000000000000000000000000000000000000000000000000060448201526064016103a2565b60008260a0013511611352576040517f08c379a00000000000000000000000000000000000000000000000000000000081526004016103a29060208082526004908201527f4344505a00000000000000000000000000000000000000000000000000000000604082015260600190565b61135f6020830183612f90565b73ffffffffffffffffffffffffffffffffffffffff1663ccdf7a026040518163ffffffff1660e01b8152600401602060405180830381865afa1580156113a9573d6000803e3d6000fd5b505050506040513d601f19601f820116820180604052508101906113cd9190613b50565b61ffff166113e160a0840160808501613b33565b61ffff1614611501576113f76020830183612f90565b73ffffffffffffffffffffffffffffffffffffffff16634794c84a61142260a0850160808601613b33565b6040517fffffffff0000000000000000000000000000000000000000000000000000000060e084901b16815261ffff9091166004820152602401600060405180830381600087803b15801561147657600080fd5b505af115801561148a573d6000803e3d6000fd5b507fec4ced14b5b836ebbc58dff0208415b7684f92a899d738abe88a923c0df9f3c492506114be9150506020840184612f90565b6114ce60a0850160808601613b33565b6040805173ffffffffffffffffffffffffffffffffffffffff909316835261ffff90911660208301520160405180910390a15b6040518060c0016040528083602001602081019061151f9190612f90565b73ffffffffffffffffffffffffffffffffffffffff16815260200161154a6060850160408601613b18565b62ffffff1681526020016115646080850160608601613b18565b62ffffff16815260200161157e60a0850160808601613b33565b61ffff1681526020018360a0013581526020016000815250606560008460000160208101906115ad9190612f90565b73ffffffffffffffffffffffffffffffffffffffff90811682526020808301939093526040918201600020845181548686015194870151606088015161ffff167a010000000000000000000000000000000000000000000000000000027fffffffff0000ffffffffffffffffffffffffffffffffffffffffffffffffffff62ffffff9283167701000000000000000000000000000000000000000000000002167fffffffff0000000000ffffffffffffffffffffffffffffffffffffffffffffff9290971674010000000000000000000000000000000000000000027fffffffffffffffffff000000000000000000000000000000000000000000000090931693909516929092171716929092171781556080830151600182015560a0909201516002909201919091557f0ee3fa3eda970d02b0d125ba0dd3fb455b1a3ed623ab0d3a2e869e42cb2d1c5b9061170590840184612f90565b6117156040850160208601612f90565b6117256060860160408701613b18565b6117356080870160608801613b18565b61174560a0880160808901613b33565b6040805173ffffffffffffffffffffffffffffffffffffffff968716815295909416602086015262ffffff9283169385019390935216606083015261ffff16608082015260a0808501359082015260c0015b60405180910390a15050565b600054610100900460ff16158080156117c35750600054600160ff909116105b806117dd5750303b1580156117dd575060005460ff166001145b611869576040517f08c379a000000000000000000000000000000000000000000000000000000000815260206004820152602e60248201527f496e697469616c697a61626c653a20636f6e747261637420697320616c72656160448201527f647920696e697469616c697a656400000000000000000000000000000000000060648201526084016103a2565b600080547fffffffffffffffffffffffffffffffffffffffffffffffffffffffffffffff0016600117905580156118c757600080547fffffffffffffffffffffffffffffffffffffffffffffffffffffffffffff00ff166101001790555b8173ffffffffffffffffffffffffffffffffffffffff8116611945576040517f08c379a000000000000000000000000000000000000000000000000000000000815260206004820152600260248201527f5a4100000000000000000000000000000000000000000000000000000000000060448201526064016103a2565b61194e83612557565b5080156119ae57600080547fffffffffffffffffffffffffffffffffffffffffffffffffffffffffffff00ff169055604051600181527f7f26b83ff96e1f2b6a682f133852f6798a09c465da95921460cefb384740249890602001611797565b5050565b6119ba6124d6565b805180611a23576040517f08c379a000000000000000000000000000000000000000000000000000000000815260206004820152600260248201527f5a4f00000000000000000000000000000000000000000000000000000000000060448201526064016103a2565b60005b81811015611ad157611a5b838281518110611a4357611a43613a2a565b602002602001015160666125f090919063ffffffff16565b611ac1576040517f08c379a000000000000000000000000000000000000000000000000000000000815260206004820152600260248201527f4e4f00000000000000000000000000000000000000000000000000000000000060448201526064016103a2565b611aca81613a59565b9050611a26565b507f626c7b0cc629b069bd6acf919cc498afe43e1e4da7fc425182040d1a093e9687826040516117979190612f36565b611b096124d6565b8073ffffffffffffffffffffffffffffffffffffffff8116611b87576040517f08c379a000000000000000000000000000000000000000000000000000000000815260206004820152600260248201527f5a4100000000000000000000000000000000000000000000000000000000000060448201526064016103a2565b8460005b81811015611d9d5730888883818110611ba657611ba6613a2a565b9050602002016020810190611bbb9190612f90565b73ffffffffffffffffffffffffffffffffffffffff1663481c6a756040518163ffffffff1660e01b8152600401602060405180830381865afa158015611c05573d6000803e3d6000fd5b505050506040513d601f19601f82011682018060405250810190611c2991906132fb565b73ffffffffffffffffffffffffffffffffffffffff16148015611ca0575060006065818a8a85818110611c5e57611c5e613a2a565b9050602002016020810190611c739190612f90565b73ffffffffffffffffffffffffffffffffffffffff90811682526020820192909252604001600020541614155b611d06576040517f08c379a000000000000000000000000000000000000000000000000000000000815260206004820152600260248201527f4e4d00000000000000000000000000000000000000000000000000000000000060448201526064016103a2565b878782818110611d1857611d18613a2a565b9050602002016020810190611d2d9190612f90565b73ffffffffffffffffffffffffffffffffffffffff16637ecd67176040518163ffffffff1660e01b8152600401600060405180830381600087803b158015611d7457600080fd5b505af1158015611d88573d6000803e3d6000fd5b5050505080611d9690613a59565b9050611b8b565b508360005b81811015611ec5576000878783818110611dbe57611dbe613a2a565b9050602002016020810190611dd39190612f90565b6040517f70a0823100000000000000000000000000000000000000000000000000000000815230600482015273ffffffffffffffffffffffffffffffffffffffff91909116906370a0823190602401602060405180830381865afa158015611e3f573d6000803e3d6000fd5b505050506040513d601f19601f82011682018060405250810190611e639190613b6d565b90508015611eb457611eb486828a8a86818110611e8257611e82613a2a565b9050602002016020810190611e979190612f90565b73ffffffffffffffffffffffffffffffffffffffff169190612612565b50611ebe81613a59565b9050611da2565b505050505050505050565b611ed86124d6565b73ffffffffffffffffffffffffffffffffffffffff8116611f7b576040517f08c379a000000000000000000000000000000000000000000000000000000000815260206004820152602660248201527f4f776e61626c653a206e6577206f776e657220697320746865207a65726f206160448201527f646472657373000000000000000000000000000000000000000000000000000060648201526084016103a2565b611f8481612557565b50565b73ffffffffffffffffffffffffffffffffffffffff8116600090815260018301602052604081205415155b9392505050565b87156122c05760008867ffffffffffffffff811115611fda57611fda6130af565b604051908082528060200260200182016040528015612003578160200160208202803683370190505b5090506000886000015173ffffffffffffffffffffffffffffffffffffffff1663e84b8fe56040518163ffffffff1660e01b8152600401602060405180830381865afa158015612057573d6000803e3d6000fd5b505050506040513d601f19601f8201168201806040525081019061207b9190613b6d565b90506000805b8b8110156122bb576120c761209960208c018c61335f565b838181106120a9576120a9613a2a565b6120c0926080918202019081019150606001613b18565b85846126a4565b6122ab57600061210b8a8a6120df60208f018f61335f565b868181106120ef576120ef613a2a565b612106926080918202019081019150606001613b18565b612701565b905060008173ffffffffffffffffffffffffffffffffffffffff16633850c7bd6040518163ffffffff1660e01b815260040160e060405180830381865afa15801561215a573d6000803e3d6000fd5b505050506040513d601f19601f8201168201806040525081019061217e9190613b86565b505073ffffffffffffffffffffffffffffffffffffffff909416945060009350506fffffffffffffffffffffffffffffffff841191506121f89050576121f16121c78380613c1e565b6121d28c600a613d7b565b7801000000000000000000000000000000000000000000000000612848565b9050612234565b61223161220f838468010000000000000000612848565b61221a8c600a613d7b565b700100000000000000000000000000000000612848565b90505b61224081878a8c612914565b61224d60208e018e61335f565b8581811061225d5761225d613a2a565b612274926080918202019081019150606001613b18565b87868151811061228657612286613a2a565b62ffffff90921660209283029190910190910152846122a481613a59565b9550505050505b6122b481613a59565b9050612081565b505050505b5050505050505050565b846040015160800151156123f5576123638473ffffffffffffffffffffffffffffffffffffffff1663e84b8fe56040518163ffffffff1660e01b8152600401602060405180830381865afa158015612326573d6000803e3d6000fd5b505050506040513d601f19601f8201168201806040525081019061234a9190613b6d565b61235685612710613d8a565b62ffffff16612710612848565b6040860151606001516123899061237b85600a613d7b565b886040015160400151612848565b116123f0576040517f08c379a000000000000000000000000000000000000000000000000000000000815260206004820152600260248201527f533000000000000000000000000000000000000000000000000000000000000060448201526064016103a2565b6124c2565b6124438473ffffffffffffffffffffffffffffffffffffffff1663a941ada96040518163ffffffff1660e01b8152600401602060405180830381865afa158015612326573d6000803e3d6000fd5b60408601516060015161245b9061237b84600a613d7b565b116124c2576040517f08c379a000000000000000000000000000000000000000000000000000000000815260206004820152600260248201527f533100000000000000000000000000000000000000000000000000000000000060448201526064016103a2565b5050505050565b60606000611fb2836129d1565b60335473ffffffffffffffffffffffffffffffffffffffff163314610a22576040517f08c379a000000000000000000000000000000000000000000000000000000000815260206004820181905260248201527f4f776e61626c653a2063616c6c6572206973206e6f7420746865206f776e657260448201526064016103a2565b6033805473ffffffffffffffffffffffffffffffffffffffff8381167fffffffffffffffffffffffff0000000000000000000000000000000000000000831681179093556040519116919082907f8be0079c531659141344cd1fd0a4f28419497f9722a3daafe3b4186f6b6457e090600090a35050565b6000611fb28373ffffffffffffffffffffffffffffffffffffffff8416612a2d565b6000611fb28373ffffffffffffffffffffffffffffffffffffffff8416612a7c565b6040805173ffffffffffffffffffffffffffffffffffffffff8416602482015260448082018490528251808303909101815260649091019091526020810180517bffffffffffffffffffffffffffffffffffffffffffffffffffffffff167fa9059cbb0000000000000000000000000000000000000000000000000000000017905261269f908490612b6f565b505050565b6000805b828110156126f6578462ffffff168482815181106126c8576126c8613a2a565b602002602001015162ffffff16036126e4576001915050611fb2565b806126ee81613a59565b9150506126a8565b506000949350505050565b6040517f1698ee8200000000000000000000000000000000000000000000000000000000815273ffffffffffffffffffffffffffffffffffffffff8481166004830152838116602483015262ffffff831660448301526000917f000000000000000000000000000000000000000000000000000000000000000090911690631698ee8290606401602060405180830381865afa1580156127a5573d6000803e3d6000fd5b505050506040513d601f19601f820116820180604052508101906127c991906132fb565b905073ffffffffffffffffffffffffffffffffffffffff8116611fb2576040517f08c379a000000000000000000000000000000000000000000000000000000000815260206004820152600260248201527f4e5000000000000000000000000000000000000000000000000000000000000060448201526064016103a2565b600080807fffffffffffffffffffffffffffffffffffffffffffffffffffffffffffffffff8587098587029250828110838203039150508060000361289f576000841161289457600080fd5b508290049050611fb2565b8084116128ab57600080fd5b60008486880960026001871981018816978890046003810283188082028403028082028403028082028403028082028403028082028403029081029092039091026000889003889004909101858311909403939093029303949094049190911702949350505050565b600061296061294d8587116129325761292d8787613dae565b61293c565b61293c8688613dae565b61294785600a613d7b565b87612848565b61271061295b85600a613d7b565b612848565b90508262ffffff168111156124c2576040517f08c379a000000000000000000000000000000000000000000000000000000000815260206004820152600c60248201527f6d6178446576696174696f6e000000000000000000000000000000000000000060448201526064016103a2565b606081600001805480602002602001604051908101604052809291908181526020018280548015612a2157602002820191906000526020600020905b815481526020019060010190808311612a0d575b50505050509050919050565b6000818152600183016020526040812054612a7457508154600181810184556000848152602080822090930184905584548482528286019093526040902091909155610a0a565b506000610a0a565b60008181526001830160205260408120548015612b65576000612aa0600183613dae565b8554909150600090612ab490600190613dae565b9050818114612b19576000866000018281548110612ad457612ad4613a2a565b9060005260206000200154905080876000018481548110612af757612af7613a2a565b6000918252602080832090910192909255918252600188019052604090208390555b8554869080612b2a57612b2a613dc5565b600190038181906000526020600020016000905590558560010160008681526020019081526020016000206000905560019350505050610a0a565b6000915050610a0a565b6000612bd1826040518060400160405280602081526020017f5361666545524332303a206c6f772d6c6576656c2063616c6c206661696c65648152508573ffffffffffffffffffffffffffffffffffffffff16612c7b9092919063ffffffff16565b80519091501561269f5780806020019051810190612bef9190613df4565b61269f576040517f08c379a000000000000000000000000000000000000000000000000000000000815260206004820152602a60248201527f5361666545524332303a204552433230206f7065726174696f6e20646964206e60448201527f6f7420737563636565640000000000000000000000000000000000000000000060648201526084016103a2565b6060612c8a8484600085612c92565b949350505050565b606082471015612d24576040517f08c379a000000000000000000000000000000000000000000000000000000000815260206004820152602660248201527f416464726573733a20696e73756666696369656e742062616c616e636520666f60448201527f722063616c6c000000000000000000000000000000000000000000000000000060648201526084016103a2565b6000808673ffffffffffffffffffffffffffffffffffffffff168587604051612d4d9190613e41565b60006040518083038185875af1925050503d8060008114612d8a576040519150601f19603f3d011682016040523d82523d6000602084013e612d8f565b606091505b5091509150612da087838387612dab565b979650505050505050565b60608315612e41578251600003612e3a5773ffffffffffffffffffffffffffffffffffffffff85163b612e3a576040517f08c379a000000000000000000000000000000000000000000000000000000000815260206004820152601d60248201527f416464726573733a2063616c6c20746f206e6f6e2d636f6e747261637400000060448201526064016103a2565b5081612c8a565b612c8a8383815115612e565781518083602001fd5b806040517f08c379a00000000000000000000000000000000000000000000000000000000081526004016103a29190613e53565b73ffffffffffffffffffffffffffffffffffffffff81168114611f8457600080fd5b8035612eb781612e8a565b919050565b803562ffffff81168114612eb757600080fd5b600080600060608486031215612ee457600080fd5b8335612eef81612e8a565b9250612efd60208501612ebc565b9150604084013567ffffffffffffffff811115612f1957600080fd5b840160e08187031215612f2b57600080fd5b809150509250925092565b6020808252825182820181905260009190848201906040850190845b81811015612f8457835173ffffffffffffffffffffffffffffffffffffffff1683529284019291840191600101612f52565b50909695505050505050565b600060208284031215612fa257600080fd5b8135611fb281612e8a565b60008083601f840112612fbf57600080fd5b50813567ffffffffffffffff811115612fd757600080fd5b6020830191508360208260051b8501011115612ff257600080fd5b9250929050565b61ffff81168114611f8457600080fd5b60008060006040848603121561301e57600080fd5b833567ffffffffffffffff81111561303557600080fd5b61304186828701612fad565b9094509250506020840135612f2b81612ff9565b6000806020838503121561306857600080fd5b823567ffffffffffffffff81111561307f57600080fd5b61308b85828601612fad565b90969095509350505050565b600060c082840312156130a957600080fd5b50919050565b7f4e487b7100000000000000000000000000000000000000000000000000000000600052604160045260246000fd5b6040805190810167ffffffffffffffff81118282101715613101576131016130af565b60405290565b6040516060810167ffffffffffffffff81118282101715613101576131016130af565b60405160a0810167ffffffffffffffff81118282101715613101576131016130af565b60405160e0810167ffffffffffffffff81118282101715613101576131016130af565b604051601f82017fffffffffffffffffffffffffffffffffffffffffffffffffffffffffffffffe016810167ffffffffffffffff811182821017156131b7576131b76130af565b604052919050565b600067ffffffffffffffff8211156131d9576131d96130af565b5060051b60200190565b600060208083850312156131f657600080fd5b823567ffffffffffffffff81111561320d57600080fd5b8301601f8101851361321e57600080fd5b803561323161322c826131bf565b613170565b81815260059190911b8201830190838101908783111561325057600080fd5b928401925b82841015612da057833561326881612e8a565b82529284019290840190613255565b60008060008060006060868803121561328f57600080fd5b853567ffffffffffffffff808211156132a757600080fd5b6132b389838a01612fad565b909750955060208801359150808211156132cc57600080fd5b506132d988828901612fad565b90945092505060408601356132ed81612e8a565b809150509295509295909350565b60006020828403121561330d57600080fd5b8151611fb281612e8a565b7f4e487b7100000000000000000000000000000000000000000000000000000000600052601160045260246000fd5b6000821982111561335a5761335a613318565b500190565b60008083357fffffffffffffffffffffffffffffffffffffffffffffffffffffffffffffffe184360301811261339457600080fd5b83018035915067ffffffffffffffff8211156133af57600080fd5b6020019150600781901b3603821315612ff257600080fd5b600082357fffffffffffffffffffffffffffffffffffffffffffffffffffffffffffffff618336030181126133fb57600080fd5b9190910192915050565b805160ff81168114612eb757600080fd5b60006020828403121561342857600080fd5b611fb282613405565b80356fffffffffffffffffffffffffffffffff81168114612eb757600080fd5b8060020b8114611f8457600080fd5b600082601f83011261347157600080fd5b8135602061348161322c836131bf565b82815260079290921b840181019181810190868411156134a057600080fd5b8286015b848110156135545780880360808112156134be5760008081fd5b6134c66130de565b6134cf83613431565b81526060807fffffffffffffffffffffffffffffffffffffffffffffffffffffffffffffffe0840112156135035760008081fd5b61350b613107565b92508684013561351a81613451565b835260408481013561352b81613451565b8489015261353a858301612ebc565b9084015250808601919091528352918301916080016134a4565b509695505050505050565b8015158114611f8457600080fd5b8035612eb78161355f565b600060a0828403121561358a57600080fd5b61359261312a565b9050813567ffffffffffffffff808211156135ac57600080fd5b818401915084601f8301126135c057600080fd5b81356020828211156135d4576135d46130af565b613604817fffffffffffffffffffffffffffffffffffffffffffffffffffffffffffffffe0601f85011601613170565b9250818352868183860101111561361a57600080fd5b81818501828501376000818385010152828552613638818701612eac565b818601525050505060408201356040820152606082013560608201526136606080830161356d565b608082015292915050565b600060e0823603121561367d57600080fd5b61368561314d565b823567ffffffffffffffff8082111561369d57600080fd5b6136a936838701613460565b835260208501359150808211156136bf57600080fd5b6136cb36838701613460565b602084015260408501359150808211156136e457600080fd5b506136f136828601613578565b604083015250606083013560608201526080830135608082015260a083013560a082015260c083013560c082015280915050919050565b60008083357fffffffffffffffffffffffffffffffffffffffffffffffffffffffffffffffe184360301811261375d57600080fd5b830160208101925035905067ffffffffffffffff81111561377d57600080fd5b8060071b3603831315612ff257600080fd5b8183526000602080850194508260005b85811015613819576fffffffffffffffffffffffffffffffff6137c183613431565b168752828201356137d181613451565b600290810b88850152604090838201356137ea81613451565b900b90880152606062ffffff613801848301612ebc565b1690880152608096870196919091019060010161379f565b509495945050505050565b8183528181602085013750600060208284010152600060207fffffffffffffffffffffffffffffffffffffffffffffffffffffffffffffffe0601f840116840101905092915050565b600081357fffffffffffffffffffffffffffffffffffffffffffffffffffffffffffffffe18336030181126138a157600080fd5b8201803567ffffffffffffffff8111156138ba57600080fd5b8036038413156138c957600080fd5b60a085526138de60a086018260208501613824565b9150506138ed60208401612eac565b73ffffffffffffffffffffffffffffffffffffffff8116602086015250604083013560408501526060830135606085015261392a6080840161356d565b8015156080860152509392505050565b60208152600061394a8384613728565b60e060208501526139606101008501828461378f565b9150506139706020850185613728565b7fffffffffffffffffffffffffffffffffffffffffffffffffffffffffffffffe0808685030160408701526139a684838561378f565b9350604087013592507fffffffffffffffffffffffffffffffffffffffffffffffffffffffffffffff618736030183126139df57600080fd5b858403016060860152506139f58282870161386d565b91505060608401356080840152608084013560a084015260a084013560c084015260c084013560e08401528091505092915050565b7f4e487b7100000000000000000000000000000000000000000000000000000000600052603260045260246000fd5b60007fffffffffffffffffffffffffffffffffffffffffffffffffffffffffffffffff8203613a8a57613a8a613318565b5060010190565b8183526000602080850194508260005b85811015613819578135613ab481612e8a565b73ffffffffffffffffffffffffffffffffffffffff1687529582019590820190600101613aa1565b604081526000613af0604083018587613a91565b905061ffff83166020830152949350505050565b602081526000612c8a602083018486613a91565b600060208284031215613b2a57600080fd5b611fb282612ebc565b600060208284031215613b4557600080fd5b8135611fb281612ff9565b600060208284031215613b6257600080fd5b8151611fb281612ff9565b600060208284031215613b7f57600080fd5b5051919050565b600080600080600080600060e0888a031215613ba157600080fd5b8751613bac81612e8a565b6020890151909750613bbd81613451565b6040890151909650613bce81612ff9565b6060890151909550613bdf81612ff9565b6080890151909450613bf081612ff9565b9250613bfe60a08901613405565b915060c0880151613c0e8161355f565b8091505092959891949750929550565b6000817fffffffffffffffffffffffffffffffffffffffffffffffffffffffffffffffff0483118215151615613c5657613c56613318565b500290565b600181815b80851115613cb457817fffffffffffffffffffffffffffffffffffffffffffffffffffffffffffffffff04821115613c9a57613c9a613318565b80851615613ca757918102915b93841c9390800290613c60565b509250929050565b600082613ccb57506001610a0a565b81613cd857506000610a0a565b8160018114613cee5760028114613cf857613d14565b6001915050610a0a565b60ff841115613d0957613d09613318565b50506001821b610a0a565b5060208310610133831016604e8410600b8410161715613d37575081810a610a0a565b613d418383613c5b565b807fffffffffffffffffffffffffffffffffffffffffffffffffffffffffffffffff04821115613d7357613d73613318565b029392505050565b6000611fb260ff841683613cbc565b600062ffffff83811690831681811015613da657613da6613318565b039392505050565b600082821015613dc057613dc0613318565b500390565b7f4e487b7100000000000000000000000000000000000000000000000000000000600052603160045260246000fd5b600060208284031215613e0657600080fd5b8151611fb28161355f565b60005b83811015613e2c578181015183820152602001613e14565b83811115613e3b576000848401525b50505050565b600082516133fb818460208701613e11565b6020815260008251806020840152613e72816040850160208701613e11565b601f017fffffffffffffffffffffffffffffffffffffffffffffffffffffffffffffffe016919091016040019291505056fea2646970667358221220b10b462cabb67451ec05de4c64ff9a17e57e9420cd2f063b4103f7f4361f11a264736f6c634300080d0033",
  "devdoc": {
    "details": "Most simple manager to manage public vault on Arrakis V2.",
    "kind": "dev",
    "methods": {
      "addOperators(address[])": {
        "details": "only callable by owner",
        "params": {
          "operators_": "list of operators to add"
        }
      },
      "getOperators()": {
        "returns": {
          "_0": "operators array of address representing operators"
        }
      },
      "initManagement((address,address,uint24,uint24,uint16,uint256))": {
        "details": "onced initialize Arrakis will start to manage the initialize vault",
        "params": {
          "params": "SetupParams struct containing data for manager vault"
        }
      },
      "isOperator(address)": {
        "params": {
          "operator_": "address to check if it's an operator"
        },
        "returns": {
          "_0": "return true if inputed address is an operator otherwise return false"
        }
      },
      "owner()": {
        "details": "Returns the address of the current owner."
      },
      "rebalance(address,uint24,((uint128,(int24,int24,uint24))[],(uint128,(int24,int24,uint24))[],(bytes,address,uint256,uint256,bool),uint256,uint256,uint256,uint256))": {
        "details": "only an operator of the contract Arrakis Finance can call the contract",
        "params": {
          "operatorMaxDeviation_": "specific max deviation wanted by operator.",
          "rebalanceParams_": "rebalance parameters.",
          "vault_": "address of the Arrakis V2 vault to rebalance"
        }
      },
      "removeOperators(address[])": {
        "details": "only callable by owner",
        "params": {
          "operators_": "list of operators to remove"
        }
      },
      "renounceOwnership()": {
        "details": "Leaves the contract without owner. It will not be possible to call `onlyOwner` functions anymore. Can only be called by the current owner. NOTE: Renouncing ownership will leave the contract without an owner, thereby removing any functionality that is only available to the owner."
      },
      "setManagerFee(address[],uint16)": {
        "details": "only the owner of simple manager call this function",
        "params": {
          "managerFeeBPS_": "new value of manager fee bps",
          "vaults_": "array of vaults where to update manager fee bps"
        }
      },
      "transferOwnership(address)": {
        "details": "Transfers ownership of the contract to a new account (`newOwner`). Can only be called by the current owner."
      },
      "withdrawAndCollectFees(address[],address[],address)": {
        "details": "only the owner of the contract Arrakis Finance can call the contract",
        "params": {
          "target": "receiver of fees collection",
          "tokens_": "array of tokens where to withdraw fees",
          "vaults_": "array of vaults where to collect fees"
        }
      }
    },
    "title": "SimpleManager",
    "version": 1
  },
  "userdoc": {
    "kind": "user",
    "methods": {
      "addOperators(address[])": {
        "notice": "for adding operators"
      },
      "getOperators()": {
        "notice": "get list of operators"
      },
      "initManagement((address,address,uint24,uint24,uint16,uint256))": {
        "notice": "Initialize management"
      },
      "isOperator(address)": {
        "notice": "check if it's operators"
      },
      "rebalance(address,uint24,((uint128,(int24,int24,uint24))[],(uint128,(int24,int24,uint24))[],(bytes,address,uint256,uint256,bool),uint256,uint256,uint256,uint256))": {
        "notice": "Rebalance vault"
      },
      "removeOperators(address[])": {
        "notice": "for removing operators"
      },
      "setManagerFee(address[],uint16)": {
        "notice": "Set manager fee bps as manager"
      },
      "withdrawAndCollectFees(address[],address[],address)": {
        "notice": "Withdraw and Collect Fees generated by vaults on Uni v3"
      }
    },
    "version": 1
  },
  "storageLayout": {
    "storage": [
      {
        "astId": 773,
        "contract": "contracts/SimpleManager.sol:SimpleManager",
        "label": "_initialized",
        "offset": 0,
        "slot": "0",
        "type": "t_uint8"
      },
      {
        "astId": 776,
        "contract": "contracts/SimpleManager.sol:SimpleManager",
        "label": "_initializing",
        "offset": 1,
        "slot": "0",
        "type": "t_bool"
      },
      {
        "astId": 1260,
        "contract": "contracts/SimpleManager.sol:SimpleManager",
        "label": "__gap",
        "offset": 0,
        "slot": "1",
        "type": "t_array(t_uint256)50_storage"
      },
      {
        "astId": 645,
        "contract": "contracts/SimpleManager.sol:SimpleManager",
        "label": "_owner",
        "offset": 0,
        "slot": "51",
        "type": "t_address"
      },
      {
        "astId": 765,
        "contract": "contracts/SimpleManager.sol:SimpleManager",
        "label": "__gap",
        "offset": 0,
        "slot": "52",
        "type": "t_array(t_uint256)49_storage"
      },
      {
        "astId": 4874,
        "contract": "contracts/SimpleManager.sol:SimpleManager",
        "label": "vaults",
        "offset": 0,
        "slot": "101",
        "type": "t_mapping(t_address,t_struct(VaultInfo)4852_storage)"
      },
      {
        "astId": 4877,
        "contract": "contracts/SimpleManager.sol:SimpleManager",
        "label": "_operators",
        "offset": 0,
        "slot": "102",
        "type": "t_struct(AddressSet)3988_storage"
      }
    ],
    "types": {
      "t_address": {
        "encoding": "inplace",
        "label": "address",
        "numberOfBytes": "20"
      },
      "t_array(t_bytes32)dyn_storage": {
        "base": "t_bytes32",
        "encoding": "dynamic_array",
        "label": "bytes32[]",
        "numberOfBytes": "32"
      },
      "t_array(t_uint256)49_storage": {
        "base": "t_uint256",
        "encoding": "inplace",
        "label": "uint256[49]",
        "numberOfBytes": "1568"
      },
      "t_array(t_uint256)50_storage": {
        "base": "t_uint256",
        "encoding": "inplace",
        "label": "uint256[50]",
        "numberOfBytes": "1600"
      },
      "t_bool": {
        "encoding": "inplace",
        "label": "bool",
        "numberOfBytes": "1"
      },
      "t_bytes32": {
        "encoding": "inplace",
        "label": "bytes32",
        "numberOfBytes": "32"
      },
      "t_contract(IOracleWrapper)6073": {
        "encoding": "inplace",
        "label": "contract IOracleWrapper",
        "numberOfBytes": "20"
      },
      "t_mapping(t_address,t_struct(VaultInfo)4852_storage)": {
        "encoding": "mapping",
        "key": "t_address",
        "label": "mapping(address => struct SimpleManager.VaultInfo)",
        "numberOfBytes": "32",
        "value": "t_struct(VaultInfo)4852_storage"
      },
      "t_mapping(t_bytes32,t_uint256)": {
        "encoding": "mapping",
        "key": "t_bytes32",
        "label": "mapping(bytes32 => uint256)",
        "numberOfBytes": "32",
        "value": "t_uint256"
      },
      "t_struct(AddressSet)3988_storage": {
        "encoding": "inplace",
        "label": "struct EnumerableSet.AddressSet",
        "members": [
          {
            "astId": 3987,
            "contract": "contracts/SimpleManager.sol:SimpleManager",
            "label": "_inner",
            "offset": 0,
            "slot": "0",
            "type": "t_struct(Set)3673_storage"
          }
        ],
        "numberOfBytes": "64"
      },
      "t_struct(Set)3673_storage": {
        "encoding": "inplace",
        "label": "struct EnumerableSet.Set",
        "members": [
          {
            "astId": 3668,
            "contract": "contracts/SimpleManager.sol:SimpleManager",
            "label": "_values",
            "offset": 0,
            "slot": "0",
            "type": "t_array(t_bytes32)dyn_storage"
          },
          {
            "astId": 3672,
            "contract": "contracts/SimpleManager.sol:SimpleManager",
            "label": "_indexes",
            "offset": 0,
            "slot": "1",
            "type": "t_mapping(t_bytes32,t_uint256)"
          }
        ],
        "numberOfBytes": "64"
      },
      "t_struct(VaultInfo)4852_storage": {
        "encoding": "inplace",
        "label": "struct SimpleManager.VaultInfo",
        "members": [
          {
            "astId": 4841,
            "contract": "contracts/SimpleManager.sol:SimpleManager",
            "label": "oracle",
            "offset": 0,
            "slot": "0",
            "type": "t_contract(IOracleWrapper)6073"
          },
          {
            "astId": 4843,
            "contract": "contracts/SimpleManager.sol:SimpleManager",
            "label": "maxDeviation",
            "offset": 20,
            "slot": "0",
            "type": "t_uint24"
          },
          {
            "astId": 4845,
            "contract": "contracts/SimpleManager.sol:SimpleManager",
            "label": "maxSlippage",
            "offset": 23,
            "slot": "0",
            "type": "t_uint24"
          },
          {
            "astId": 4847,
            "contract": "contracts/SimpleManager.sol:SimpleManager",
            "label": "managerFeeBPS",
            "offset": 26,
            "slot": "0",
            "type": "t_uint16"
          },
          {
            "astId": 4849,
            "contract": "contracts/SimpleManager.sol:SimpleManager",
            "label": "coolDownPeriod",
            "offset": 0,
            "slot": "1",
            "type": "t_uint256"
          },
          {
            "astId": 4851,
            "contract": "contracts/SimpleManager.sol:SimpleManager",
            "label": "lastRebalanceTimestamp",
            "offset": 0,
            "slot": "2",
            "type": "t_uint256"
          }
        ],
        "numberOfBytes": "96"
      },
      "t_uint16": {
        "encoding": "inplace",
        "label": "uint16",
        "numberOfBytes": "2"
      },
      "t_uint24": {
        "encoding": "inplace",
        "label": "uint24",
        "numberOfBytes": "3"
      },
      "t_uint256": {
        "encoding": "inplace",
        "label": "uint256",
        "numberOfBytes": "32"
      },
      "t_uint8": {
        "encoding": "inplace",
        "label": "uint8",
        "numberOfBytes": "1"
      }
    }
  }
}